:0402E2007FF47E0126
:1002E600E4FDFCC3ED9FEC9E5015E4FBFA0BBB004E
:0F02F600010AEB64FA4A70F50DBD00010C80E4BB
:0103050022D5
:1001BE008F20C2B5C2A3A20792A2C2A1D2A1A2064B
:1001CE0092A2C2A1D2A1A20592A2C2A1D2A1A204C0
:1001DE0092A2C2A1D2A1A20392A2C2A1D2A1A202B4
:1001EE0092A2C2A1D2A1A20192A2C2A1D2A1A200A8
:0901FE0092A2C2A1D2A1D2B52245
:100207008F20C2B5D2A3A20792A2C2A1D2A1A206F1
:1002170092A2C2A1D2A1A20592A2C2A1D2A1A20476
:1002270092A2C2A1D2A1A20392A2C2A1D2A1A2026A
:1002370092A2C2A1D2A1A20192A2C2A1D2A1A2005E
:0902470092A2C2A1D2A1D2B522FB
:0A033C00AE05120207AF0602020729
:100250008F20C2B5C2A3A20792A2C2A1D2A1A206B8
:1002600092A2C2A1D2A1A20592A2C2A1D2A1A2042D
:1002700092A2C2A1D2A1A20392A2C2A1D2A1A20221
:1002800092A2C2A1D2A1A20192A2C2A1D2A1A20015
:0902900092A2C2A1D2A1D2B522B2
:0E0167001202507F011201757F2C1201750FDC
:100175008F20C2B5D2A3A20792A2C2A1D2A1A20684
:1001850092A2C2A1D2A1A20592A2C2A1D2A1A20409
:1001950092A2C2A1D2A1A20392A2C2A1D2A1A202FD
:1001A50092A2C2A1D2A1A20192A2C2A1D2A1A200F1
:0901B50092A2C2A1D2A1D2B5228E
:0E032200C2B47F647E001202E6D2B40202E68C
:10000300C2B47F647E001202E6D2B41202E67F110C
:100013001202507F781202E67FB11201677FB2129B
:1000230001677FB312016712016A7FB41202507F26
:10003300071201757FC01202507FA21201757F0261
:100043001201757F841201757FC11202507FC512A0
:1000530001757FC21202507F0A120175E4FF12017B
:10006300757FC31202507F8A1201757F2A120175B0
:100073007FC41202507F8A1201757FEE1201757FD1
:10008300C51202507F0E1201757F361202507FC8CF
:100093001201757FE01202507F021201757F1C125C
:1000A30001757F071201757F121201757F371201E7
:1000B300757F321201757F291201757F2D1201752B
:1000C3007F291201757F251201757F2B1201757F20
:1000D30039120175FF1201717F031201757F10122E
:1000E30001757FE11202507F031201757F1D12011A
:1000F300757F071201751F1201757F2E1201757F1F
:100103002C1201757F291201757F2D1201711201C5
:10011300757F371201757F3F120175FF120175124A
:1001230001757F021201757F101201757F2A120279
:1001330050FF1201757F02120175FF1201757F8155
:100143001201757F2B120250FF1201711F120175EC
:100153007FA01201757F3A1202507F051201757F4D
:04016300290202501B
:080306008E088F09AB05AA0463
:10030E00E4FCE4F9AF09AD0312033C09B980F50C26
:03031E00BCA0EF91
:0103210022B9
:100299001200037F2C1202507DFF7C007FFF7E003D
:1002A9001203061202E2E4FDFCFF1E12030612020B
:1002B900E2E4FDFC7FF81E1203061202E27DE07CF7
:1002C900007F071E1203061202E27D1F7C00E4FF75
:0902D9001E1203061202E280BAB3
:03000000020330C8
:0C033000787FE4F6D8FD75812002029968
:00000001FF
