:0300000002A486D1
:0CA48600787FE4F6D8FD75810B02A2DDA2
:100003001010008000A0011BFF9DFF9DFF9DFF9D21
:10001300FF9DFF9DFF7DFF7DFF7DFF7DFF7DFF7DBD
:10002300FF7DFF7DFF7DFF7DFF7DFF7DFF7CFF7DEE
:10003300FF7DFF7CFF7CFF7CFF7CFF7CFF7DFF7DE2
:10004300FF7DFF9DFF9DFFBDFFBEFFBFFFBFF79F6E
:10005300FFBFFF1CFE79EDF5EDF4FE56E5D5EE5836
:10006300EE38CCF4B40F7A48A36DDD75EDF7EDB639
:10007300CCD2CD34CCD2CC7192CBBBD0CC92BC7190
:10008300D575E5F8D598A3F2C4F6DDD9D5B8B4D5BE
:10009300BD15CD97CD77D5F9CDB9D5D9BD78C5DA0D
:1000A300BD15B4B27AAA830CE639C556C515DDB7BA
:1000B300EE59E5D7E5B6ED96EE18F638EE37F6D9F4
:1000C300FF5CFF7CFF7BFF7BFF3BFF5AFF38F6D5CE
:1000D300FEB5FF19FF7BF738FF39FF7CFF5CFFBDDF
:1000E300FFDDF77BFF7BFF7BFF5BFF5BFF5BFF5B63
:1000F300FF5BFF5BFF9CFF3AFF39FF5BFF1CFF5B6E
:10010300FF3AFF19FEF9FF1AFF9DFF9DFF9DFF9D1B
:10011300FF9DFF9DFF7DFF7DFF7DFF7DFF7DFF7DBC
:10012300FF7DFF7DFF7DFF7DFF7DFF7DFF7DFF7DEC
:10013300FF7DFF7DFF7DFF7DFF7CFF7DFF7DFF7DDD
:10014300FF7DFF9EFFBEFFBEFFBEFFBFFF9EFFBD45
:10015300FEFAEE36D553EDF5EE16DD99E5D9EE1937
:10016300A3CF69C77228C4B2F658EDF7D534B4519A
:10017300B431C473A34EB3EFD534CD14C4D3E575F2
:10018300DD96B492AC73C516D577CD56B493B4B49B
:10019300BCD4C536D598CD98BD16D5FADE5BD61B33
:1001A300D61AD5D8CD97D5D7CD97BD56DDF9DE195B
:1001B300F6BCE639EE39F639EE18E5B6EDF6EE366D
:1001C300F698FF3BFF7CFF7BFF5BFF7BFF7AFF39EA
:1001D300F6B6F6D5FF39FF3BFF3AF739FF3BFFBDD4
:1001E300FFDEF77CFF7BFF7BFF7BFF5BFF5BFF5B40
:1001F300FF5BFF3BFF7CFF5BFF3AFF1AFF3BFF7C8C
:10020300FF5BFF1AFEF9FF1AFF7DFF7DFF7DFF7D78
:10021300FF7DFF7DFF7DFF7DFF7DFF7DFF7DFF7DFB
:10022300FF9DFF9DFF9DFF7DFF9DFF9DFF9DFF9D0B
:10023300FF9DFF7DFF7DFF7DFF7DFF7DFF7DFF9E9A
:10024300FF9EFF9EFFBFFFBEFF9EFFBEFF9EFEB948
:10025300E5B4E5D4F636E5B7DDB8EE3CCD169B2D17
:1002630061659B2CD514EE39E5F8BC72A3F0BCB3E1
:10027300BCB382AD9B4EB410B451B491E5D7CCD38B
:10028300BC92BCD3DDF8EE5ADDB7D575D555D5563E
:10029300B453C4F5BCF6CD77D5B9CDB9C598C578F7
:1002A300C5BAB517941283AFA4D4D65ACDD9CDFA13
:1002B300D63ADE7ADE19F69BFE7AEDF7F5F6EDB463
:1002C300F615FE97FED9FF7CFF7BFF5AFF7AFF5B93
:1002D300FF19FED6FED7FEFAFF5BF719F719FFBE2B
:1002E300FFDFFF9DFF7BFF7BFF7BFF5BFF5BFF5B15
:1002F300FF5BFF1BFF5CFF5BFF3AFF19FF3AFF7CCD
:10030300FF7CFF1AFF1AFF1AFF9DFF3CFF3CFF9D76
:10031300FF9DFF9DFF7DFF9DFF9DFF9DFF7DFF9D3A
:10032300FF9DFF9DFF9DFF9DFF9DFF9DFF9DFF9DEA
:10033300FF9DFF9DFF9DFF9DFF9DFF9DFF9EFF9ED8
:10034300FF9EFFBFFFBFFFBFFFDEFF3CE638CCB21F
:10035300DD54F638E5B7CD17DD9BAC4FFF3CFF3CD2
:10036300FF3CFF3CEDF8CCF4A3F0FF3CFF3CAC3288
:1003730061E993D0C4F4BC51CCD3E576B431BC72FB
:10038300BC92C514D596BCD3BCB3CD34CCF4BCD489
:10039300FF3CFF3CCD57D598B4D59C33ACB5A49462
:1003A300B538ACF7ACF69452DEBCDEDC732FBD98E7
:1003B300B598E71EEF1EDE7BDDD8E617F616F5D4FB
:1003C300F5D3E551EDF5F6B8FF7BFF7AFF5AFF7BD6
:1003D300FF7AFF1BFED8F6B6FF1AFF19FEF7FF7C64
:1003E300FFBEFF7DFF7BFF5BFF5BFF7BFF7BFF5B55
:1003F300FF5BFF3BFF1BFF3BFF5BFF5BFF3AFF7DA9
:10040300FF9DFF1AFF1AFF19FF9DFF3C7BCF7BCF98
:10041300FF9DFF9DFF7DFF9DFF9DFF9DFF9DFF7D39
:10042300FF9DFF9DFF9DFFBEFFBEFFBEFFBEFFBE44
:10043300FFBEFF9EFF9EFF9EFF9EFF9EFF9EFF9EB1
:10044300FF9EFF9FFF9EFF9EFF5CE617D512E5957B
:10045300EDD7D577CD37D5779B90FF3CFF3C7BCF4E
:100463007BCF7BCF7BCFB431ABF0FF3C7BCF7BCF5C
:100473009BAFBCD3CD14D513CCB2BC10BC52BCD4EF
:10048300C515C4F4B492B410BC93B473C4D4CD569C
:10049300FF3C7BCF7BCFAC53AC74ACB5ACD6B517BC
:1004A300A4F6C5D9A4D5BD97E6FDBDD9A4D5CE1A6A
:1004B300C61AD6BCEF1EE6DDE6BCE659DDB5E5930C
:1004C300F5D3FE34EDF5E592FE96FF5AFF5BF73A5E
:1004D300FF5AFF3BFF1AF6D7F697FED8FEB6FF1971
:1004E300FF9BFF5BFF5BFF5BFF5BFF5BFF7CFF5BD8
:1004F300FF5BFF3AFF1AFF1BFF3CFF9CFF5BFF5DA7
:10050300FF9DFF1BFF1AFF1AFF9EFF3C7BCF0000DE
:100513000000FF7DFF9DFF7DFF7DFF9DFF7DFF7D34
:10052300FF9DFF9DFFBDFFBEFFDEFFBEFFBEFFBE03
:10053300FFBEFFBEFFBEFFBEFFBEFF9EFF9EFF9E30
:10054300FF9EFF7EFF7DFF3BE616CD12ED94DD742B
:10055300CD13CD76AC536A287AA8FF3C7BCF7BCFF3
:100563000000000000000000CCF4FF3C7BCF000043
:100573000000BC50B3CECCB2C4B2A3AF9BCFAC93FC
:10058300B4B3AC51B431A36DC473B454C516BCF544
:10059300FF3C7BCF000000009BD27B2F9412A495DD
:1005A300AD36C5D9D63ABD98BDB9D67DB536C61ACE
:1005B300EF5ECE3AD69BA4D5F7DFDE9ACD95D55222
:1005C300CCAFE551F5F4F5D3E551EDF4FEF9F73B86
:1005D300FF5BF719FF3BFF1CF676FEB5FE95F6B6FB
:1005E300FF59F71AFF3AFF5BFF5BFF5BFF5BFF5BA4
:1005F300FF5CFF39FF39FF3BFF1BFF9DFF7CF73D8E
:10060300FF9EFF1BFF1AFF19FFDEFF3C7BCF00009D
:100613000000FF3CFF3CFF3CFF3CFF3CFF3CFF3C3A
:10062300FF3CFF3CFFBEFFBEFFDEFFDEFF3CFF3CA7
:10063300FF3CFF3CFFDEFFBEFFBEFFBEFF3CFF3CB7
:10064300FF3CFF3CFF3CE5D6E552F5F5FF3CFF3CA4
:10065300FF3CFF3C69C7A30ACC2ECD787BCF0000BB
:100663000000FF3C7BCF00000000FF3C7BCF00007D
:100673000000BBCDD4D2B430AC11AC31FF3CFF3C55
:10068300FF3CFF3C92CAABCFAC11FF3CFF3CFF3CAD
:10069300FF3C7BCF0000000083B183F29CB6CE1BEE
:1006A300C5B9AD169CB58C53B598BDF9A4F6BDB9C3
:1006B300F77FCE3BD6BCC63BF79EE71D9C94B49315
:1006C300B450CCD0DD0FED73ED52E52FE591F65626
:1006D300FF39FF39F6F9FF1BFF39F6B6FEF7FE12B5
:1006E300FEF8F75CFF3AFF3AFF5BFF5BFF5BFF5CE3
:1006F300FF7CFF9CF71AFF3AFF1AFF5DFF9FF73C51
:10070300FF7DFEFAFEFAFEFAF7BEFF3C7BCF000048
:100713000000FF3C7BCF7BCF7BCF7BCF7BCF7BCFDF
:100723007BCF7BCF7BCFFFBEFFDEFF3CFF3C7BCF8E
:100733007BCF7BCF7BCFFFDEFFBEFF3CFF3C7BCF7E
:100743007BCF7BCF7BCF7BCFEDD5FF3CFF3C7BCFFC
:100753007BCF7BCF7BCFC431D4D1C4F59B8F00003B
:100763000000FF3C7BCF00000000FF3C7BCF00007C
:100773000000C4F4B4729BD0AC52FF3CFF3C7BCF6F
:100783007BCF7BCF7BCF932EFF3CFF3C7BCF7BCFBD
:100793007BCF7BCF000000008BD29C75BD79C5BA9F
:1007A300B538945394539494AD57B598B578CE1BFC
:1007B300EF5FCE3BD69CE73FDEBDEF3FCE3BACB415
:1007C300ABF19B4CC46DD4D1D4B1C40CE52FFE1353
:1007D300F654FED7FF1AFEFAFF7BFF7AFEB6FE53EE
:1007E300FE75FF5BFF3AFF1AFF5BFF5BFF7BFF5C5E
:1007F300FF7CFF9CF71AFF3AFF1AFF3CFF9FF71C91
:10080300FF5CFF1BFF1AFF1AFFBEFF3C7BCF0000FC
:100813000000FF3C7BCF0000000000000000000050
:100823000000000000000000FFDEFFFE7BCF7BCF57
:100833000000000000000000FFBEFF3C7BCF7BCF29
:1008430000000000000000000000FF3C7BCF7BCFD6
:100853000000000000000000C492A34EB3D0FF3C90
:10086300FF3C7BCF7BCF00000000FF3C7BCF000031
:100873000000936EA3D0C4B39B8EFF3C7BCF7BCF92
:100883000000000000000000FF3C7BCF7BCF000096
:1008930000000000000000009413A475AC96A4555A
:1008A300ACD68C1283B1A4F6AD16B598BDBAD67C7E
:1008B300D67CC5FAD69DE73FDE5CE6FEDEFED65A61
:1008C300B4B430217A8BAC0DC46BDCEDD46ECBEDBC
:1008D300DCCDED91FED7FF5AF75BF75BFF19FE33D3
:1008E300F5F1FED7FF5AFF1AFF3AFF5BFF7BFF7C50
:1008F300FF7CFF7CFF3AFF3AFEF9FF3CFF7EF71CCB
:10090300FF3CFF1AFF1AFF1AFFBEFF3C7BCF00001C
:100913000000FF3C7BCF00000000FF3C7BCF0000CA
:100923000000FF3C7BCF00000000FFDEFF3C000027
:1009330000007BCF7BCF00000000FF3C7BCF00009B
:100943000000FF3C7BCF00000000FF3C7BCF00009A
:1009530000007BCF7BCF000000009B0CFF3CFF3CE3
:100963007BCF7BCF000000009B2BFF3C7BCF0000A5
:100973000000ABCFCCD3BC30C450FF3C7BCF0000D6
:100983000000936EBCF4000000007BCF0000000069
:10099300FF3C7BCF00000000AC94B4D67B308BB21D
:1009A300732F8BF29C94B557C5B9C5B9C5DACE1B65
:1009B300C5FBCE3BD67DD67DDE9CDEDDCEDBD6BB56
:1009C3009C31832D622959A59B49AB8BDCB0D44E56
:1009D300D46EDCAEE570FE74FF39FF3AFF7AF6544D
:1009E300EDB0FE12FF3AFF3AFF1AFF5BFF5BFF5BBE
:1009F300FF7CFF7CFF5BFF1AFEF9FF3BFF7DFF3CA3
:100A0300FF3CFEFAFEFAFF1AFFBEFF3C7BCF00005D
:100A13000000FF3C7BCF00000000FF3C7BCF0000C9
:100A23000000FF3C7BCF00000000FF3CFF3C7BCF7E
:100A33007BCF0000000000000000FF3C7BCF0000E4
:100A43000000FF3C7BCF00000000FF3C7BCF000099
:100A530000000000000000000000FF3CFF3C7BCFD3
:100A63007BCF00000000A30CB3CCFF3C7BCF000086
:100A73000000CCD3A38EA38EABCFFF3C7BCF000073
:100A83000000AC73728C8B4FFF3C7BCF00000000E7
:100A9300FF3C7BCF00000000A4128B6F8BB1732E41
:100AA3009C74A4B5BD58BD58C5B9B4F6B538BD9A44
:100AB300BD99C5DAC5FBBDBABDBAD6BDC65AC63ADD
:100AC300D65A838F7B0B6A4859258AABB38DC46E84
:100AD300D4F2D4AFD46BE52DFE32FEB6FF18FEF888
:100AE300ED8FED6EFED8FF1AFF19FF3AFF5BFF5B38
:100AF300FF5BFF5CFF5BFF1AFEF9FF3BFF7DFF5DC2
:100B0300FF1BFF1BFEFAFF1AFFBEFF3C7BCF00005B
:100B13000000FF3C7BCF00000000FF3C7BCF0000C8
:100B23000000FF3C7BCF00000000FF3C7BCF7BCF6E
:100B3300000000007BCF00000000FF3C7BCF0000E3
:100B43000000FF3C7BCF00000000FF3C7BCF000098
:100B53000000FF3CFF3C82899B0CFF3C7BCF7BCF9B
:100B630000000000B38CBC2CB3CFFF3C7BCF000054
:100B730000009B8F932DA3D082EDFF3C7BCF000021
:100B83000000FF3CFF3CAC53FF3C7BCF0000000068
:100B9300FF3C7BCF00000000A412B4B48BB094934D
:100BA30083B19C54BD58B53783719C549434B53884
:100BB300A496ACF7B559A4F7C61DCE7DBDFBE6FEE2
:100BC300B578B5587B2E51C6936C8ACB8ACBABCE06
:100BD300B451D4F3E50DD468E4EBFE33EE96FF791C
:100BE300EDD1E4ECF654FF19FF19FF3AFF5BFF5B0D
:100BF300FF5BFF3CFF5BFF3AFEF9FF3BFF7DF71C0A
:100C0300FF3CFF1BFF1AFF1AFFBEFF3C7BCF000018
:100C13000000FF3C7BCF00000000FF3C7BCF0000C7
:100C23000000FF3C7BCF00000000FFDE7BCF000015
:100C33000000FF3C7BCF00000000FF5B7BCF000088
:100C43000000FF3C7BCF00000000B4107BCF00000E
:100C53000000FF3C7BCF7BCFA38EFF3C7BCF00000C
:100C63000000FF3CFF3CB3EEC491FF3C7BCF000090
:100C73000000FF3CFF3CFF3C82EC7ACB7BCF0000C3
:100C83000000FF3C7BCF7BCF6A4A7BCF0000000094
:100C9300FF3C7BCF00000000836E626B7B7083712F
:100CA3005A2BACB59C3372EF8BF37B71B53794132E
:100CB30083519C14B518B559B537B599AD78C65B52
:100CC300CE7BAD57C5F941A8392562289BAECCD15F
:100CD300C4AF8B6FBC8FDCCCCC08E4EDFE74F6F4B0
:100CE300FE74DC8DF5D1FEB6FF18FF3AFF3AFF5BC9
:100CF300FF3AFF3AFF19FF3AFF19FF3CFF3DF6DBCE
:100D0300FF5DFF5CFF1BFEFAFF9EFF7D7BCF0000B4
:100D13000000E6397BCF00000000CE7B7BCF0000D4
:100D23000000FF7E7BCF00000000FFFEFFFE0000FF
:100D330000007BCF7BCF00000000E616D5530000F8
:100D430000007BCF7BCF00000000AB6CCC6D0000BC
:100D530000007BCF7BCF00000000A36C7BCF0000A3
:100D630000007BCF7BCF7BCFAB8E82AA7BCF0000F3
:100D730000007BCF7BCF7BCF7BCF9B6E9B8F000015
:100D830000007BCF7BCF00000000832D000000001C
:100D93007BCF7BCF00000000524A734F8BD17B0F78
:100DA300A4548B90626C7B508BB28BD26B0E5A6CBB
:100DB300A474A495BD58A4B5B579AD58C61BAD9917
:100DC300C61B9CD5EF3EC5D95A4A520941668B8F43
:100DD300D595C4B2A3AFB42ACBE9D3E8E52DFF156B
:100DE300FED5CC6DD4EEEE34FEF8FF39FF5AFF3A50
:100DF300FF1AFF19FF1AFF19FF1AFF1BF6FBFF1C4F
:100E0300FF5DFF5CFF1AFEFAFF7EFF7DFF3C0000E3
:100E13000000EE7ADE7A00000000D69CE6DC0000DB
:100E23000000FF7EFF9E00000000FFFEFFDDFFFECF
:100E330000000000000000000000FF3CFF3CCCD19C
:100E430000000000000000000000CC2DBC0A9AC87E
:100E530000000000000000008B4DBBCCC44F00001D
:100E630000000000000000000000BC50BCB2000005
:100E73000000000000000000000000007A6A8B2DD3
:100E83000000000000000000830D72AC7B0D000029
:100E93000000000000000000522A7B6F93F2AC7543
:100EA3007B2F72AD7B2E7AEE7B0E5A0A39688BD17B
:100EB3008BD1B516A4949C33BD99AD58AD99A55863
:100EC300AD79B5BAD65BE71EAD1694536B0E524B94
:100ED3009413E617CD14AC10BB87CB66D448EDF062
:100EE300FEB5E551B3AAE591FED6FF19FF3AFF1906
:100EF300FF19FEF8FF19FEF9FF3BFF1BF6DAFF3C73
:100F0300FF3CFF7DFF1AFEFAFF7EFF7DFF5DFF1CA6
:100F1300FEFCF6DCE6BBDEDCCE9CDEDDE6FDEEFDB4
:100F2300FF5DFF9EFF9EFFBEFFDEFFFEFFDEFFFEB7
:100F3300FFDDFFDDFFFDFF19EE15D5117BCF7BCF65
:100F4300FF3CFF3C7BCF00000000C40CAB48B3ACBC
:100F5300B38CAB6C9AEA92EA9BADD48FD4B1A36DF8
:100F63009B6DB3CEB3CD92A9A36CA3CF59C79BCF2F
:100F730082EB9B6EA3CF934D82AC82CCA3F0BD14C6
:100F8300832D5A29838E7B6E52087B0D832E832EED
:100F9300834E832E72ED5A6B62CD9C53A47472CE32
:100FA3005A2A8BB0A432834F59C8622A93B0836EF6
:100FB30093F16ACD8B90A474B5179C75A51794B65D
:100FC300BDFBD6BEC63BE6FEEF3F9CB57BB19C9511
:100FD3005AADCDB9DE38AC73BBEDAB04AAE4D48B08
:100FE300ED8FF5B0BBA9DCEEFE95FF39FF19FF19B4
:100FF300FF18FEF8FF19FF1AFF3BFF1BFEFAF71C51
:10100300FF3CFF7DFF3BFF1AFF9EFF7DFF7DFF5CE3
:10101300F71CEEDCE6BCE6DCD6DCDEDDE6FDF73E07
:10102300FF5DFF9EFFBEFFDEFFFEFFFEFFDEFFDD77
:10103300FFDCFFDDFF5AE5F5D510B3ECE532000028
:1010430000007BCF7BCF00000000A309B38CB3ADBE
:10105300A30A9AC99AC9BBCCC44DD48FA34C8B0C99
:10106300A38EA34BA308AB498AEA6A6B836F82AB57
:10107300A36D93AF7AAB8B2D832DA4118B2D6208B7
:101083006229A4317B0C39457B2D6A6B7ACC834F63
:10109300622A51C859E9830E836F730D5A4A520964
:1010A3006A8B8B6E7AED72AB936EB492A38E82ECE5
:1010B3006A4A626B8B90B4F79BF27B4F8C139495C7
:1010C300B599BDDAB5BACE5CE6FED67C9C949C9508
:1010D3008C12AD99EF1EC5158B2C9B48BB89C3A7FA
:1010E300E4AAECEBC3C8CC2AF613FF39F719FF398E
:1010F300FED6FF17FF19FF1AFEDBFEFBF6F9F6FC1F
:10110300FF9EFF7DFF5BFF1AFFBEFF9DFF7DFF5D1F
:10111300F73CEEFCEEDCDEDCDEFDDEFDE71DF75E1C
:10112300FF7EFF9EFFBEFFDEFFFEFFDEFFDDFFDD76
:10113300FFDDFFDDE615DD72B38CCCB0CCF08AEBBE
:101143000000000000000000AB29A2EAAB0BAB4C8F
:1011530092A9A2E9CC0DD48FCC8FAB8C7A69932D55
:10116300A34CA30AB3498B0A7289626A7AAC8B0CCB
:10117300ABAE7AEB832C8B4E9BF07ACC5A098AED7B
:10118300B41151C731048B8E6A8B5A2A9BF1622AA0
:1011930051C8832D834E830E6A8B52093926626BA5
:1011A300730D6AAC5A4A6ACB834E8B6E9B4DA41067
:1011B3008B8EA4729C5383707ACD9C129C539C9506
:1011C3009C969CD7BE1BC61AD67CD63BACF6B537CD
:1011D3009494ADB8DEBFE63A6A2628208287BBAA7C
:1011E300CC09CBE8BB87B367F5F2FEF8FEF8FF182E
:1011F300FED6FF18FF19FF19FEB8FF1AF6B9F6FB62
:10120300FF7DFF5CFF5CFF1AFF9EFF9DFF7DFF5D7F
:10121300FF3DF6FCEEFCE6FDDEFDE71EEF3EFF5F65
:10122300FF7EFF9EFFBEFFDEFFDEFFDDFFBDFFDDB6
:10123300FFFEF6F9EDB4CC6FCC50EDD5A3CD826BA8
:101243009B0BBBEBC40CAB4AA30AAB0AAB0A926879
:10125300A2E9C40CD4AFB3CDABAE92EB7AABABAED9
:10126300AB2AC3EDA34C730E51A77A8A9B6D828A76
:10127300934D8B0C93AE93EF51C7626AB473ABF08B
:1012830059E852089BD062496AEC941151E94167CD
:10129300836E7AEC624A49A8414649886AAC834E18
:1012A300730D398620E45A8B834E830E72EE59E90F
:1012B30093CEAC50B42F594459EA9C12ACB4941356
:1012C3008BF483D4B5BABDB9CE1AC5DAC5DBBDDAA2
:1012D3005ACCB5B9E71FE69CC4B27AA9830B930A2B
:1012E3009B08B349A2A6AB27FE33FE75F6B6FED71D
:1012F300FEF6FF5AFEF9F696FEB6F6B8F6B9F6BA5A
:10130300FF1AFF19FF5CF73CFF9EFF9EFF7DFF7DE9
:10131300FF3DF6FCEEFDE6FDDEFDE71EEF5EF75F4B
:10132300FF9EFF9EFFBEFFDEFFDEFFDDFFDDFFFD55
:10133300FF5BEE57DCF1C430F615B40C92CC92ABE4
:10134300BBCBC42DA32AAB4C92AA9AEA9ACAAB4A46
:10135300C42CD4AFAB6BA34C92EC62088ACBA30A28
:10136300C3ACA38D730C59C7726ABC7169C6A3AEB3
:10137300A38EA370938F39C66B2C93F07A6B4125A0
:10138300628A69C849466ACB7B2D836F730D8BB024
:1013930072CC496630C449C85A4A7B4E6B2D39A773
:1013A3001062318639876AAC8B4F7ACD9B0CCC9215
:1013B3009B4C69E769E7C492CD35934D7AAABCB2D9
:1013C300AC119BB08BF2A4D6BDDBC63CCE9DD67DC3
:1013D3007BB1AD78E6FEBDB8DE5AA4514944510253
:1013E300612281E471628A44FE12FE54F675FEB7EF
:1013F300FED8FED7F655F675FED6EE77FF1AF6F948
:10140300FF39FEF8FF5CFF7DFF9EFF9DFF7DFF7DA3
:10141300FF3DF71CEEFDE6FDDEFDE71EEF5EFF5F21
:10142300FF9EFF9EFFBEFFDEFFDEFFDDFFFDFF9C95
:10143300FF1AE5D5B3CDE574C4CF930A8A4AAB6AE4
:10144300C40C92A99B0B9AEB9AEB92CAA30BBC0C0C
:10145300CC8DAB6A92C9A38D930C7ACA8AA9C3CDEA
:10146300A30A7ACB528C69E8B4715985932C9B8D6E
:101473008B2C93D0624A7B0D8B6E62494145626A25
:101483007A4A724A6AAB51E87AEC72CC93CF628B98
:10149300390510005A0972ED5A6B5A6A20A410825A
:1014A300314518A349C851E972CC93906A6A51C770
:1014B3006A499BCF936D9BAE8ACAABCED4F1ABACDA
:1014C300AB6CB3AE8BB1ACD6AD59B5FBB5DACE3B95
:1014D300C59AD65CCE5AAD56E71EC57761E77A89C1
:1014E30092E979E558E0A328E550ED91EDB2EDF4EA
:1014F300F676FE75FE95FED6F675FEF8FEFAF6D87C
:10150300FF18F6F8FF7CFF9EFF9EFF9EFF9DFF7E68
:10151300FF3DF71CEF1DE6FDDF1DE71EEF5EFF5FDE
:10152300FF9EFF9EFFBEFFDEFFDDFFDDFFFEFF3AF6
:10153300F697BC4ED511D551A36B92AC9ACAC46B26
:101543009AC992CB9ACA9B0B92A99AE9BBEDC46E36
:10155300B3CB8A889B0BB3EF7AAA92E9C42DA30974
:10156300724851C73105CD34726982AAB4508B4D8C
:10157300832C5ACA7ACB92ED824B51A76AAA9BCF8E
:10158300832D5A4969E97ACC628A8B8F4986204236
:101593003925836E5A6A49E849C828E4102120E4B2
:1015A30020A349A751E88B8F834E51A8294618A43D
:1015B300524A5A6A83AE730B728B8B6D93AE82EB76
:1015C300C4F3A3F0A411A432ACF6BD78C5B9BD9998
:1015D300CDFBDE9DAD37C61AFFDFB5169BCFA3CE7D
:1015E3007A2771E56963A34ABBCBD48EE530EDB2AC
:1015F300F614FE95FEB6F675FEB6FF19FED8F6F99B
:10160300FF18FEF9FF7CFFBEFF9EFF9EFF9EFF7E3D
:10161300FF5DFF1DEF1DE6FDDF1EE71EEF3EFF5FD3
:10162300FF9FFFBEFFBEFFDEFFDEFFBDFF9CFEB9D7
:10163300DD11C48FE5F4A3CC92AA9AAAC40CA34BE0
:101643007A29A32B9AEA9AC9A30ABBCCC42BABACC5
:1016530082889AEBB3EF72287AAADC2DB38A8B0ABD
:101663004A083904D4D17AAB7AAB9B8E8B4D8B6EFF
:10167300624982898AEB82CB61E77AEC93CF728AE3
:1016830041A67AEC6A6A7AAC8B4E414520215A080E
:101693006ACC49C849E841C741C728C449A738E5C6
:1016A3004126832DA4116A6B394531664923936D15
:1016B3008B4E72AC6AAB6269932B8B0A936C8B4B28
:1016C3008B4CA3EFB471BC92BC92CD56DDFACDB96D
:1016D300BD98BD78B558D65BBDB9B5367AEC200058
:1016E30050E3408082689B0BAB4BC3ECED30F5B10C
:1016F300EDB1FE76FE96FED7FF39FEF8FEB7FF3C4E
:10170300FEFAFF1AFF9DFF9EFF9EFF9DFF7DFF7E5A
:10171300FF5DFF3DEF1DE71DDF1EE73EEF5EFF5E52
:10172300FF7EFF9FFFBFFFBEFFDDFFBDFF5BF63503
:10173300CCAFE553BC8F930A9AC9AB69C40D79E961
:10174300930C9B09A30AA2C9B38AC40BB3AB928AB5
:10175300AB4AAB8C934D6205BC6EC40E930A59E73A
:101763004146C4D39B2B82AAB3AF9BCF7BAE31033D
:101773008AAB9B0BA3AE6A6A7B0C834D414549A799
:101783008B4E69E96229830C410449A76A8B5A2964
:10179300520941C731874A494A293946624A832D4A
:1017A3009BB0A3D07A8C6209836E836E93CFAC72A5
:1017B3009BF09BAE934CA36C72A89BCC936B9B6BDF
:1017C300BC4FCCF1BC92C4B2B430C4B2DDD6EE3956
:1017D300CD76D597C5379C5383D15A6A30C4180048
:1017E30038C240C3518561A68248AB2AD44DED2F40
:1017F300E50DFEB7FEF9FF3AFF19FED8FED8FF5CF0
:10180300FF1BFF3BFF9DFF9DFF9DFF7DFF7DFF5E58
:10181300FF5DFF3DEF1EEF3EE73EE75EEF7FFF7E9E
:10182300FF9FFF9FFF7EFFBEFFDDFF7BFED8CD0F37
:10183300C48FDD139B4B9AEAAB29C42B82488A6B76
:101843009B4C9B2992A8B34AD44DB3AA9AC9B34AD5
:10185300B36C92CB7A89ABCBCBCC8AEC3985316430
:10186300D4938A297AC9BC30A4705A895146930CFF
:10187300A3CF8AEB6A2972AC7B4E38E451C77B0D48
:1018830061E97A8B8B0D494562695229414541468D
:10189300626A5AAB41E8314549C772CB93AF93AF04
:1018A3006209620972AB6A8B6A6A59E8522A29256E
:1018B3000000000000000020202138C45187934E0F
:1018C300ABF0ABF093AE93AEA40FB430B450BC50B6
:1018D300DD13CCB3A3B0936E72CB184120C318624F
:1018E30018611000100028616185A32ABBABDC8C52
:1018F300E4ACF633FF3AF719FF18FEF8FF5AFF3B43
:10190300FF1BFF3CFF7DFF5CFF9DFF9DFF7DFF7D78
:10191300FF5DFF3DF71EEF3EE73EE73EF75FFF7FCC
:10192300FF9FFF9FFF9EFFBEFF7BF6F8F655ABCCF4
:10193300D4D1C4508AC8AB6BBBCC9B6A72089B2EB4
:10194300A32B82479B09BBEBC42E92A9A329CC8C62
:101953008A6B7A09B38ACC4FA30C514651E7C5125F
:101963008A28A30BABEE8B8E31843943BBF092CC28
:10197300726A620762497B0C51876A496A494987DF
:101983007ACC728A59E849A6396539455A296A6A6F
:10199300622A416741666A8A830D61E8410438E33C
:1019A30049C73945498651E749A64965294408404D
:1019B30020E2290341446A689BAFAC31A3F09C1138
:1019C300836F72CC6B2D8C10B4B3C515C4D4ABCF5D
:1019D3008AC97A0871C8934D728A418618A2000099
:1019E3000800100028C349A64945512471C4BBA966
:1019F300DC8CDD0EFF17FF38FF18FEF8FEFAFF1B25
:101A0300FF1BFF5CFF5CF73BFF9DFF9DFF7DFF7DA1
:101A1300FF5DFF3DEF1DEF1EE73EE73EEF5EFF7EFE
:101A2300FF7EFF7EFF9EFF9CFF5AFED7D530C4B0DA
:101A3300CCB19B2B9B08B38BC44F51447A8BA36EC1
:101A430082058227C42DBC2C92CAA32CC44E9BAD05
:101A530059459AC7DC8D9B4D420859A5B40F92A9ED
:101A63009B6BB430932C41C65986AC0F62485A081D
:101A73008AAC5A2872CB61E861E861E861C8830CDB
:101A830062085A085208416551E86A8A6A6A4966D7
:101A93006229728B6229724A594648C46A496A8A22
:101AA300520849A74965494572498B2D92CB8AAAA9
:101AB3009B4CB40EBC2FC44F626862485A483986A7
:101AC30018A218A349268B4FB493C515A412620913
:101AD300410359C7728B832E51E818410000082037
:101AE3000800100018411841182138C348E28266E3
:101AF300C40BDCECFE94FED7FEB6FEF8FF1AFF3BE8
:101B0300FF3BFF5CFF5CF71BFF9DFF7DFF7DFF7DC0
:101B1300FF5DFF3DF71DEF1EE71EE73EF75EFF5E2D
:101B2300FF9EF77DFFBEFF7BFF3AEDD3BC2CD512A2
:101B3300ABCD9B2AA308B40D6A0759879B4E7A281D
:101B43008A66B3ABBC2D92E98289A36CA32A59A8F8
:101B53009AE7E50B930939264A88D44F932AA3AC15
:101B6300A36D828B5A298B0C930C51656A6993EF91
:101B730049A7624A38E36A087249938E7AAA51A642
:101B830062296A8A626A622A6A2A728A7AEC72CB48
:101B930072CC626A728B7ACC6A8A59E849863904B4
:101BA300412559E862296A4A7ACB6A2941874186E5
:101BB30051E872CB59C6490449A741461842184215
:101BC30049C87B0DAB2EBC32934E4987394649E851
:101BD300290541885A4B8BD149E91883082108000C
:101BE300186218410800184120C33945496569E660
:101BF30092C8D46CF5F3FEB7FE96FED8FF1AFF1B0E
:101C0300FF3BFF5CFF5CFF3CFF9DFF7DFF7DFF7D96
:101C1300FF5DFF3DF71EEF1EE73EE73EF75FFF5E0A
:101C2300FF7EFF9EFFBDFF5BFEB7C46DCC4DBC0EB8
:101C33009B4AA3499AE89B4C41049B8FA36E7A2746
:101C4300A36BC44CA36B7A489B6C92E97A0779E740
:101C5300ECCCBBE918626249D3CDA34CA3AEAC1064
:101C63006A6961E782AA7A4838C37AEB936E518630
:101C7300498549676A29934C934C6A8949656A691E
:101C83007B0C5A29728B69C9826B720951A739453A
:101C930041C73965414628A3188320C3416661E8DB
:101CA30051A849A8312518821041000010613165FF
:101CB3003144418559C669E759E861E769E89B2CD6
:101CC300AB8E9B0C8B0C59A60800080010610020FA
:101CD300082139678BB18BB0184210212904080001
:101CE3001862394530E4104008000000000020006D
:101CF3005964AAE7CC6EDD93FEB7FEF8F6F9FF1A36
:101D0300FF3BFF5CFF7DFF5CFF9DFF9DFF7DFF7D34
:101D1300FF5DFF5DF73EEF3EE71EEF3EF75EFF7EA2
:101D2300FF9EFF5EFF9DFF39E5B2BBEACC6D9B4C86
:101D330093098AA6ABAD51A77229A38E7A89A2EB28
:101D4300B36AC42E61897AACA38B820671A5D42FA2
:101D5300CC4A288059C8CC70B40C7246B470830B3B
:101D630049457A69824851247AAB93AF59C740E217
:101D730061E68B2E832D834D936E9B4D8AAB8B0C2B
:101D8300726951A66A087A6B59A7414630E420620A
:101D93001862208220831882290420A330E43905A5
:101DA30010E30000000000000000006230A33905CA
:101DB30039463126290441A66A4AABCFC44FAB2921
:101DC3009A6681E430A10800000000000000084189
:101DD30049A76AAC7AEE5A0A2084398741A70800DA
:101DE30020824104594672286A0740C25124618502
:101DF30040E27163B34AD48EE571F655FF18FF19BB
:101E0300FF3AFF5CFF9EFF7DFF9DFF9DFF7DFF7DF2
:101E1300FF5DFF5DF75EEF3EEF3EEF5EF77FFF7E18
:101E2300FF7DFF5EFF5BFED6C48DD48EBC2E7A2869
:101E330092E9B3AA724849669B2D8AAB82A9A2C9CB
:101E4300CC4F72497A69AB8D8AEA6163B369E4ADB9
:101E530038A151A5D4CF9B2A82A9BCB17269410490
:101E63007A8A7AAA6A087A8A938E72AB728A8B0C00
:101E73008B0A8AC99B6C8B2B9B6C8ACA71C7596668
:101E830059A77ACB6A6A410538E420C3186220C394
:101E9300290420C31062000041A762AB39453125F4
:101EA30049045125514538C338C228611820100010
:101EB3000020084131036A079B2C824969866165CA
:101EC30061C659854985496549855A0851C8624A99
:101ED3006A8B622A6A6C72CD9C7383D03145000091
:101EE3001041202140E461867A089ACA9289928837
:101EF300A2A9AB29AB27C3EAED90DD50E5D3FEB829
:101F0300FF1AF71BFF9EFFBEFF9DFF9DFF9DFF7DF9
:101F1300FF5DFF5DFF7EF75EF75FF77FFF7FFF9E4D
:101F2300FF9EFF7EFF5AE5D1BBEACC6E8ACA9AEBCD
:101F33009B0AB3ED38816A07ABCE7A8A8A67B36BA3
:101F4300A3CF4966ABABA32A618682E7ED2E81C49A
:101F530059C4C4CEBBAB92EBA38C934D514571E7EF
:101F63008ACA72287A8A82EA82EA6A2872488AAA24
:101F73009B2BC40DA32A71C571E682898ACB7A8B08
:101F83006A6A6A8A49A628C328C320A31041082085
:101F93000800000000000000084120E320C32905D9
:101FA30039855A0762076A079B0AA30A8A696A077F
:101FB3005A067AC9B38CCBAD922481A4716561456D
:101FC30051654945496559A672098ACD7A6B59C845
:101FD300414651E96A6C624B418818830800082026
:101FE3000800080028A251C759C761A682A9A34ABD
:101FF300AB29C3A9CBE9CC09F56FFE13EDF4EE16BB
:10200300FEFAFF3CFF7EFFDFFFBDFF9DFF9DFF7DCF
:10201300FF7DFF7DFF5EFF7EF77EFF7EFF7EFF9EDF
:10202300F77EFF9DFED7CD2EDD2FAB6C828A9B0BF7
:10203300AB8C618551649B4CABAD6A079AE9CC4E7E
:1020430051C77229A3CD69C758C4E550A36A510388
:10205300BC4CAC0BA32BB34C930B592479E69AC815
:10206300928792E9930A9B2A9B2A9B09BBEDBBCDDE
:102073009AA879C67A079B0C9B4D932D61C840E4BF
:10208300496620A2000018821061000000000000D1
:1020930000000000000000200000000008211041A3
:1020A30018621061186120A1394349C569A58227C7
:1020B3008A2779648184716379E47A0582897A69EC
:1020C3006A2861C659E859C7492541052082310567
:1020D30049A741474127520A49E918A30000104183
:1020E300186220E31061104141A63944390369C4E1
:1020F30092A7C3E9DCACD46BCC2ACC8DE552DD339B
:10210300DD95E639FF5EFFBFFFBDFFBEFF9DFF9E6E
:10211300FF7DFF7DFF7DFF7EFF7EFF9EFF7EFF7DB8
:10212300FF9EFF7DE5D2D50ED511822992EAABAC95
:1021330082AA28218289AB8C8AC992C8CC6F728902
:102143004944B3AE69E75985D46FBBCB3880B3EC50
:10215300C3ED92EA8B09A3087A09AB6BCC6FB3ED9D
:10216300B40EABCD9B4CA32AAB6AC3ECB3AC9AC9F8
:102173008AA98B2D830C59E8392528A3180128A295
:1021830039251882082008200821080000000000D3
:102193000000000008201061106110611061080048
:1021A3000800186231044986518651866AA869E697
:1021B30061236123494318800000000000000000F0
:1021C3000000000000000000080008200000086173
:1021D3001842392651EA6AAD83D1630D0840106174
:1021E3001862522962AB186241A75A2930C348A129
:1021F30060E181E3A2E6BB88CC2BDCF0E552DD5441
:10220300D575D5B7DE5BE69CFFBDFFBEFFBDFF9E68
:10221300FF9EFF7DFF7DFF9EFF9FFF9EFF9EFF7D35
:10222300FF7EFEDACD10D52F82AA69C8BBCCB3CB13
:1022330049453906A38C9AEA82C8BBCBAB4D1882B9
:10224300932AA3AC50E2A348D4ED6184A38ABB8A4A
:1022530071A59B2AABCD82CBC42EDD51B44E8B4CE2
:10226300498638C372AB9B0CA36DAB8DA36D8B0CEE
:10227300728A418618A200200020108128E320C31F
:102283001061000000201041080008000800080049
:10229300082000000841106120C320A3186220C356
:1022A30030C351A64945410459A74945616669862A
:1022B30048C3284110210001000000000040002015
:1022C3000000080000000000000000000800206279
:1022D30028A35A0A730E83B1734F294500000000E7
:1022E30010004167941139A618E352CC31871820A6
:1022F30048E18A46AB49AB28BBCAD4CFE553E59541
:10230300DDB6D597D5FAEEBEFFBEFFBEFF9EFFBE7C
:10231300FF9DFF9DFF9EFF9DFF9DFF9DFF7EFF9FF6
:10232300FF9DDDD0D56FAC2F6123A2E7BB8C624B41
:1023330018A38AC9C42E6A4692A9BBCF214361C69A
:10234300D44F7A287A06C44D6942AB6BDCEF720432
:10235300C46EE510C3ECC44EA38B1821390430E3DB
:102363006A28A36DD4B2AB8D8AEB728A392528C350
:10237300102100000000000008813104204100000A
:1023830008002041288318210800084110611041EA
:10239300084100000000000000001862416651C7B8
:1023A30051E830E31800202040E2490330A32041E4
:1023B3000800000000000000000000000000000012
:1023C3000000000000000000000000000000106298
:1023D30018A33945496649A7394641C820A320A314
:1023E30020A330E49C11ACB4208339866B0D2905FE
:1023F3001061310361E671C59A68AAE9B36BFE56B1
:10240300FE78EE39F6DDF6DDFFBEFFBEFF9DFF9DD4
:10241300FF9DFF9DFF9DFF9DFF9DFF9DFFBEFF9EB7
:10242300F6D8DDAFCD0F7A4871C5BBCB92EA30C584
:102433004124C44F82676A27BBAF62071820BC2FB1
:102443009B0A6963BC2D8A66AB8CCC8F9286B42DB4
:10245300BC0DA30992A86A0638A262297ACB72AA94
:10246300936D8AEB590451235145202118611021A2
:10247300080000010000104138E420410000102052
:10248300392438E42882102010610841000000003C
:1024930000000820108220C3292431452903184154
:1024A300080010002082390430C218000800000020
:1024B3000000000000000000000000000000000019
:1024C3000000000000000000000000000000000009
:1024D30000001841412551C751E87B4E3145316613
:1024E300106220A38BB0DE3B9C935A695229730E72
:1024F30020620820390361C58A678A878246BBED5B
:10250300F5F7F69AFF1EF6FDFF9DFF9DFF9DFF9DCC
:10251300FF9DFF9DFF9DFFBEFFBDFFBDFFDEFF9C37
:10252300F694DD6FA38B590492C9BBEC6A682081D2
:102533008A89B3ED7227A32DB3F010007207AB6C39
:102543007205BBCAAB88BBECCCB171C5AB69A36ADE
:102553008AA892C961A6410472EC724A7AAB830CD1
:10256300620861C761A661C64945416631041041ED
:1025730020A210611061392540E428A318A230C3BA
:10258300414530A32062106108410000084118C38F
:1025930018C32925316518C31061082000000840BD
:1025A3001842208320821020000000000020002019
:1025B3000000000000000000000000000000000018
:1025C3000000000000000000000000000000000008
:1025D300000020A2496559E759A76AAB29244A2973
:1025E30031A739C86B0EC5B89432730C6AAB9BF133
:1025F300410428C2390338A1386069C4724692C9BC
:10260300DD54EDF8F69CFEFDFF9DFF9DFF9DFF9DB4
:10261300FF9CFF9CFF9CFFBDFFBDFFBDFFDDF6D808
:10262300E58FC48E69C679E8BC2E8AC928C249647D
:10263300CC0E7A467248C3F141A62040B38C9286F1
:10264300BBABBBE8C42BDD32594492E9A34A92A940
:102653008A898269516649A749C86A4A6A4A38C35E
:102663005186496551C630E33945290408000820DD
:102673000820082041055146394541C630E430A3BE
:1026830020421821104100000000082118A218C39D
:1026930008410000000000000000082000000000C6
:1026A30010010800000000000020002000000000CE
:1026B300000000000000080000000000000000000F
:1026C30000000000000000200000000000000820BF
:1026D300104039446A2761C6514451A64186080017
:1026E30008000000528BCDFA9C735228624AAC5307
:1026F30072692820408272077A0671C5824792C99F
:10270300B40FE5B6FEFCFF1DFF9CFF9CFF9CFF9CE6
:10271300FF9CFF9CFF7CFF9DFFBEFFBDFF9CEE3433
:10272300DD709B8C59259AEBABCD516428418B0B03
:10273300ABAC6163934C934D00007A47AB49AB89D3
:10274300D42BD48BED5171E67227B40E8A6882893B
:102753008ACB492549677B2D5A4A5208498659C86D
:1027630038E4390428A2290320C300000000000034
:10277300080030A361A749253966312528831862EB
:1027830010210000000000000000002000000000F5
:102793000000000000000820084108200800100085
:1027A3001041084108200000000000000000000064
:1027B30000200000000000000000000000000000F6
:1027C300000000000000002000000000000020C303
:1027D300288159A6826869C55963492359C61800D7
:1027E3000800000049E89C746B0D41A6836E5A09EA
:1027F300624892EB48814060616379E58A478A8940
:10280300ABAEDD34EDF8F6DBFF7CFF9CFF9CFF9C59
:10281300FF9CFF9CFF7CFF9DFF9EFF9DFF5BE5D31D
:10282300DD3072696187ABAD8AE928815125BC0F20
:102833007AC85943B450210230C2BC2EA2E7CC6BF4
:10284300E4CCFD2F79E469A6A3CD82A88A899B4DA8
:1028530040A341058B8F51E849C729654A2849A7F9
:1028630038E4288228C318C20000000000000000DA
:1028730039247A4949A641664925180108011041BE
:1028830018A200200000000000000000000000006B
:1028930000000000000000200841186128A32882DE
:1028A30008200000000000000000000008000000F5
:1028B3000000000000000000000000000000000015
:1028C300000000000000000000000020000031456F
:1028D300490492EB8A8969C55983598469E6286159
:1028E300204008003105734F314720A2A4923104E0
:1028F300100082887A6759625961618369C471E7FC
:10290300A36DF617EDD7DDF8FF7CFF7CFF7CFF7B23
:10291300FF7BFF7BFF9BFF7BFF9DFF9CF695ED6F8E
:102923009B6C69659B08BC2F4104308092AAA38BE2
:10293300492092A8728A28A3B431A389B409DCED93
:10294300D4CE69416122AB6C82698ACB930B490572
:1029530062297B0C2061416641665A29394520A3CF
:1029630028E320A2080000000841290341866A6A7F
:10297300830C51A741463925184118821061000084
:102983000000000000000000000000000000000044
:10299300082008411841288328C418820000000039
:1029A3000000000000000000000000000000000024
:1029B3000000000000000000000000010001000012
:1029C300080008000000000000200000288359458B
:1029D3009B09AB8C8A8869A5826871E571C4592308
:1029E3003860308138E3728A08203A076AAA494579
:1029F300000000006A28820558E040C059656165FF
:102A030082AAE5F7FEFAFED9FF7CFF7CFF7CFF7B01
:102A1300FF7BFF7BFF7CFF5BFF7CFF7BEE34C44AC5
:102A230069E771A5BC4D82A9284161E6AB8E7206A8
:102A33006A26A38D41254104B3CD9AE7E50EE4EF61
:102A430079A361439B4B82688248930B6A287ACBB4
:102A53005186204131045A295A0928C3288339044D
:102A6300396628C3312441865A086229726A61C8CB
:102A7300514639452082186108000000000000001B
:102A830000000000000000000000000008200821F2
:102A93000841082010210800000000000000000089
:102AA3000000000000000000000000000000000023
:102AB3000000000000000000002000000000106182
:102AC30010610000000000400000184138C39B4C17
:102AD300B3AD9AEA7A069AE99AEA8A887A0569840A
:102AE300512348E240E251A729254A2810005166A4
:102AF3002081000018007A268AC84902490451043B
:102B03006A28C4F3FF9DFEFAFF7CFF7CFF7CFF7BFA
:102B1300FF7BFF7BFF5CFF5CFF5BFF59E5D19B27DE
:102B2300596592A8B40C5143308272299B0B5943C7
:102B33006207516618218AE9BBA9D48DED5182053C
:102B430061649BAE61C67A27B40F8AEB6A6938E485
:102B5300202151E8730C628A49A7624A72CC626AE7
:102B630051C85A295A296A8B62095146494638A3E2
:102B73002021106108000000000000000000000098
:102B83000000000000000000000000000000002022
:102B93000000000000000000000000000020000012
:102BA3000000000000000000000000000020000002
:102BB300000000000000000000200000206128A2A7
:102BC3000000002100000800184038E28ACAC40E41
:102BD3009AEA92C99AE9AB6B9AE9A32A9287822669
:102BE300698451023860518762AC0821100048E3C0
:102BF300410300000000182072688B2C7229724A6E
:102C0300728BC535FF9DFEFAFF7CFF7CFF7CFF7B4B
:102C1300FF7BFF7BFF5CFF7CFF7BFEF7D50F69E447
:102C23005102B3CB8AC930A2410492EC9B4C4902B6
:102C3300724951A759C6CCEEE52DE55092E869E5F6
:102C4300936C516582AABC0F9B2C622830E4390433
:102C5300730C5A6A20C339454987498749A7626A71
:102C6300628B6AAB5A49290420624145414528C316
:102C730008400020002000000000000000000000C9
:102C83000000000000000000000000000000000041
:102C93000000000000000000000000000000000031
:102CA3000000000000000000000000000000000021
:102CB3000000000000000000000020A2390308000B
:102CC3000000000028C328C338C28288B3CCA2E91D
:102CD300A2E9AB4BB36BB38CB38CB36BA30992A8D0
:102CE3007A055101594259A620620000000028418B
:102CF30051231060000000001000494540E440A348
:102D030059A7A430FF5CFF1AFF7CFF9CFF7CFF7C6C
:102D1300FF7BFF7BFF5CFF7CFF7AF655B40C5123EE
:102D23007225BC0A722828A36227A36E518461C44A
:102D3300826A5A08CD10F5D0ED8FA34871C4930A67
:102D4300724692E9CC90A34C61E7288220A341A765
:102D5300312410411041396651C8418749A7418741
:102D6300312528C4104220C349A749662062104078
:102D73000000000000000000000000000000000050
:102D83000000000000000000000000000000000040
:102D930000000000000000000020002000000000F0
:102DA30000000000000000000000000000200020E0
:102DB30000000000000000002861414410200000D2
:102DC30000001021414451857227AB8CA30AAB2A22
:102DD300B3ACB3ACBC0DBBCDB3ACB3ACA34A9B2A71
:102DE3008A87592261A440C21820000000001020E5
:102DF30040A228A2000000200801204128A250E29E
:102E030040C28B4CFF9DF6DAFF9CFF9CFF9CFF9C0E
:102E1300FF9CFF9CFF7BFF9CFF39E5B292E94903CE
:102E2300A3AAB38859672083936C82495184AC4D1C
:102E330069A67AC9F5F1E4ECAB687142AB2A81E685
:102E4300B3ECCC4DA30A614438C33945418620A372
:102E53001882080028E449C8390520831021080096
:102E630008000801290551C74105306220410800C7
:102E7300002000200000000000000000000000000F
:102E8300000000000000000000000000000000003F
:102E9300000000000000000000000000000000002F
:102EA30000000000000000000000000000410020BE
:102EB30000000000186128E35103182000000020DF
:102EC3000800414461C57228B3EEA32BAB4BC42E5B
:102ED300C44ECCAFBC2DC42EC42EBC2EB3CCA34B3E
:102EE30071E561A47A264902204000000000082110
:102EF300284130A2082000000000288228A1614355
:102F03007206B470FEFBFF1BFF9CFF9CFF9CFF9CA3
:102F1300FF9CFF9CFF7CFF9CFED6CCCD59626206D2
:102F2300BB8992C818206A28B3AE824A932B71C416
:102F330092A5ED4EE54DC3EA89C3C3AAA2E7BC4DF2
:102F4300C4EF8AEA598659A6494539252083188250
:102F53001062290452082083182108000800082061
:102F63001021392630E5410439042082184110210B
:102F73000821000000000000000000000000000025
:102F8300000000000000000000000000000000003E
:102F9300000000000000000000000000000000002E
:102FA30000000000000000200000000000200000DE
:102FB30000002081514271012081000000000800BF
:102FC300310351656A06AB6CAB2BAB0BBBCDC42E87
:102FD300C44EBC0EB3CCBC0DC40DB3EDB3ED8AC966
:102FE30059639B4B824669C5308108000820000065
:102FF30010403861388208000000186151A66A2821
:10300300930ABC2EFF1BFF1BFF9CFF9CFF9CFF9C96
:10301300FF9CFF9CFF9CFF9BEE55930750E082882B
:10302300C40C6A674944ABCF82696185932A8245A0
:10303300D4CEED6FB3C8B3A7CC8BC42BDCD0BC0EFE
:103043007A48726961E7494528821862186200006C
:103053003125396628E420621000082008000800A2
:10306300312528A328A449662882100010000800EF
:103073000800000000000000000000000000000045
:10308300000000000000000000000000000000003D
:10309300000000000000000000200000000000000D
:1030A30000200000002000200000000000000000BD
:1030B300312369846964386000000820000031040A
:1030C30049447A68ABACA34BBBEDC42EC44EC46E6B
:1030D300C46FC44EBC2EC44EC46ECC6FBC0E6143D1
:1030E3009B2BA34B9AE97A2640E2100000200000B4
:1030F30008000820492440A318610820388269C6C3
:1031030092E9CCD1FF3CFF1BFF9CFF9CFF9CFF7C03
:10311300FF7CFF9CFFBCFF39DD7182657A05BBAC88
:1031230092C9104069C4820861A59B899307CC8C1E
:10313300F5B0BC09BC09DD6ECCEDC46D9309828A80
:1031430082AB59E830E32061184120A3080020A393
:103153001862100118621842184210201841418762
:103163003105310541662062184118621021102192
:1031730008210820082008200000000000000000AB
:10318300000000000000000000000000002000001C
:1031930000000000000000200000000000400000CC
:1031A300000008001021080100200000182151A58B
:1031B300720569223040080000000000184159C61A
:1031C300932BC44FBBEDCC4FCCAFCCCFCCCFCCCF1C
:1031D300CC8FCC8FC46FC44EBC0DC44E82479B2B87
:1031E300CC90AB6CA34A8A87516410200000000086
:1031F30000000020206040A33882416559C771E771
:10320300AB4BED74FEFBFF3CFF9CFF9CFF9CFF9CC4
:10321300FF9CFF9CFF9BFF39BC4D7A058246AB6A3E
:10322300514320C2B3EE9AAA82A89BA8D4EDEDB075
:10323300BC09C44AED6FC4AE932982A8932B6A28B4
:103243003882496628C320A33104102120E320C318
:10325300102128C320831842182118414166414692
:1032630038E4390528822082206118621021104138
:103273001041084108210820080000000000000058
:1032830000000000000000000000002008410020B2
:1032930000000000000000200000002000000000EB
:1032A30029043125312608000800186069E88A28B6
:1032B30079A4206000200000082118404944A3ACF1
:1032C300C46FC42ED46FCC8FCCAFC4AFC4AFCCCF3C
:1032D300CCB0CCAFCC8FC46FC46EB3CDA32BDD53B6
:1032E300BC4FBC0EBC0E9B0961A41820000000005B
:1032F30008000020000028A261E75146184251440B
:10330300BC0EFE98FF1BFF1BFF9CFF7CFF7CFF9CFA
:10331300FF7BFF7CFF9BFE768A867225ABAB9B49C6
:1033230030C27268932C61228265BCACED8EBC09FD
:10333300CC6BE52FCC8D93098AA992CA722859A721
:1033430062294166208330E4184128C328E4102110
:1033530020A318621841100120824167390528A370
:10336300414638E4286220822062184118621041E5
:103373000821082108210821080008000800080086
:10338300080008000820082000200000002000009A
:1033930000000000002000000000000028A359C81E
:1033A30051E749E72904104161E7828992A971E64F
:1033B3002860000000001042202040C2B3ADD4B00A
:1033C300CC6FBC6ECC6FD4F0C4AFCCD0D4D1CC9086
:1033D300CCD0D4F0CCD0CCB0BC2EAB8CD4F1CD12AD
:1033E300C4D1CCD1BC2EB3EC69E5100000000000C1
:1033F300000000001041080020A26ACC8BB09BF0B3
:10340300DD74FF1AF6FAF6F9FF9CFF7BFF7BFF7B67
:10341300FF7BFF9CFF7ADD5079C47A67ABAA490032
:1034230028A292EB61878246DD2EE590C42AD48BD5
:10343300D48BC40B9B29A34A8A887A2861C75987EE
:1034430030A428A4414628C43125188210201862CC
:10345300184220621821208230E428C4390559E833
:1034630040E43082308220A22082182110410800DB
:1034730008000800082108210801080008010820A5
:103483000800082008200820082000000000000091
:103493000000000000001041314528826208726A72
:1034A30072EA184128E3836DA3AEA30A714318207F
:1034B30000000001080010006184BC2ED48FCC6E84
:1034C300CC8FC4D0D4D0C48FCCF0CCF1CCB0D4D07A
:1034D300CCF0CCD0CCAFC48FBC2DC48FD532CD12A1
:1034E300CD33CCF2CCF1C48F724610000000002023
:1034F30000000021080018200000086272CD72CC81
:10350300BCD2FF1AFF3AFF19FF7BFF7BFF7BFF7BD8
:10351300FF7BFF9CF6D5A36871E55123AB2638E208
:1035230049867A898247CC4ECCCEABAADCCFDCCCA1
:10353300C409C40A9AE79AC8A32B82AA61E838C4CB
:10354300284230C4208218A2082008201861206273
:10355300288328A3184118613104314651E840C338
:10356300492438C330E420A3206228A3182108008B
:10357300000010210841000008210800104110211B
:1035830008000800080008000000000000000020F8
:103593000000080041666A495125722982EB72894D
:1035A30028A251C69BADB42F9B0A612320001000B3
:1035B3000000000028607A26C48FD4F1C48FCCD0D9
:1035C300CCD0CCD0CCD0CCD0CCD0CCD0D4F0D4F0C8
:1035D300CCF0CCD0CCF0C46FC48FD511D512CD12A2
:1035E300D553D574CD12CCD082A810000000002092
:1035F30000000000000008001000080000005165F2
:10360300C4F2FF1AFF19FEF9FF7BFF7BFF7BFF5B11
:10361300FF7BFF9CDDB19265310082A7A34B18406D
:1036230051649329CC8DE530CC6EABABB40BC44B5A
:10363300C409BBC99AC8BBCD9B0A6A2838C3206298
:10364300310420C31061000010002862388330E485
:1036530028A41842182128A330E4498751865166CB
:1036630059A651A64166308330E428C30800000000
:103673000861002100000800102110210800082023
:103683001041082008000800000008400800080056
:1036930028617AEB934C7249A38ECCD38B0C40E315
:1036A3007249C471CC2F92A848A230210020000097
:1036B300000040E392EADCB1DD32CCD0CCD0D4F1CF
:1036C300D4F1CCD1D4F0D4F0D4F0D4F1D4F1D4F1FA
:1036D300CCF0CCD0CCD0CCD0CCF1D511D512D553A5
:1036E300D594DDB5D553D5328AE91000000000002A
:1036F300000000200000080008001021188259650E
:10370300CD33FF3AFF19FF19FF7BFF7BFF9CFF5B64
:10371300FF9BFF5ABC4D7A444921B42D49A738A1D8
:10372300AB8BDD2FED4EBBC9C3EDBC0DDD4FA34706
:10373300C42BB369C3EDAB6C7A283081180028E43D
:1037430018C3084100001862392538E438A32082E1
:1037530028A32062180038E3496561A76A08724903
:1037630061E75A08394449045186104100000000BA
:1037730000200000080028A3206208000820106130
:1037830008200000080008000000082028827AAB07
:10379300BC519B6E8AAACC91CCB2A38D7228AC107B
:1037A300D4F3BBCD924661223060080000001020A4
:1037B3004923BBEEDCF2D4D1CCF1CCD1D512D4F178
:1037C300D511D4F1D4F1D4F1D4F1D4F1D4F1D4F1AD
:1037D300CCF1CCF0CCD1D4F1D512D512D532D5530E
:1037E300D595DDB5DD94DD538B0A0800000000009C
:1037F300000000000800188231043124526A71E687
:10380300C4B1FF1AFEF9FF3AFF7BFF7BFF7CFF7B0E
:10381300FF9BF6B7AB8951A179E4A36918A18A8804
:10382300F5B1DD0EAB67AB88D4AFD4AEABC8AB6735
:10383300BBCAC40CB38C826840A2202030E4188237
:103843000000102130E430E430A31820102120A31D
:10385300206120213061598572278A88930B92EB6E
:103863006A28410349647A2830C3000000000841F4
:10387300000010414186390518211020104108200D
:1038830008001020080008002904732CB492C4F423
:10389300ABF0BC72DD34B3EFA38DC492D514D53530
:1038A300CCB2A34B820540802020000020216A284F
:1038B300BC2FDD32CCF1D532D512D512D512CCF1D5
:1038C300D532D4F1D511D511D511CCF1D4F1CCF138
:1038D300CCF1CCF1CCF1D4F2D512D512D532D553EB
:1038E300D574DDB5DDB5E574930A0800000000006A
:1038F30000000000104120A239662082102161845B
:10390300C4B0FF7BFEFAFEFAFF7BFF7CF77CFF9CD3
:10391300FF7AD57192A45961C3C982677A66FE336F
:10392300ED2DAB47BC0CBC0CC46CC44A9283CC6B6E
:10393300CC4CBBCC7A2740A13081498630E4186255
:1039430039253166290418411800184120C328A2DB
:10395300180040E37A489B0AA30AAB49AB4B9B0B85
:10396300594471C69B4B59441000000000010000EC
:1039730020416229624A10000800186210200820C2
:103983001841100010004986B493DDB8C515AC92F8
:10399300BD14C555BC93BCB3D555D5B6DD95DD5522
:1039A300DCF2928859024060200028629AAAD4B1BE
:1039B300DD32CCF1CCF1D4D1D512D512D512D5123A
:1039C300D532D512D512D512D512D512D511D5119E
:1039D300CD12CD12D512CCF2D512D532D533D57442
:1039E300D595DDB5E5D5EDB5934B08000000000096
:1039F300000000000800080030C3396510627184BC
:103A0300DD53FF3BFF1AFF3AFF5BFF9CFF9CFF7CEC
:103A1300FF18C4CC93288AC7AB27A328F5B1D56E6A
:103A2300A3AA92E8AB6AAB6AC46CAB87C3E9D46C54
:103A3300B3CBA36A516462076A2830C3288339254C
:103A430028A318C3082008001021208220A249447B
:103A53006A078ACA92E9A30AAB4BBBABABAB7A67E3
:103A630071C5AB6C92A8208100000000000028A261
:103A7300934D7AAC1841000010611020080010002B
:103A83001820308251667ACB9BAFABF1BCF4CD9654
:103A9300C596C576D5D8DE19CDB7CD76DD75D4F309
:103AA300A2EA61236123488171C6AB8EDCF2DD5348
:103AB300D532D532D512DD12D553DD53DD53D53290
:103AC300D532D532D532D532D512D512D512D5123B
:103AD300D512D512D532D512D532D553D553D57487
:103AE300DDB5DDD6DDD6EDD59B6C00000000000012
:103AF30000000000102018621021182118419AE9D3
:103B0300EE36FF5BFF1BFEFAFF7CFF9BFF9CFF5B18
:103B1300F675ABA640E25982D48DFDB0D4ABB48C1C
:103B23006227930AC40CBB8ACC6CC44BC44BC42B12
:103B3300A32871E5724859E730622041390528C44A
:103B43001862084100000000104128C349658AEB50
:103B530092EB92EAA34AB3ACBBCCC40D8AA79B29D0
:103B6300B38CA34B5163000000000800728AABEFD3
:103B73008289182108001061104110000800286193
:103B830061A78A8A92AB826A7A8A830BA430AC5289
:103B9300B4B4D5D9E65BDE3ACDD8D5D8DD359AAB0A
:103BA300822771A569859B2BBC50D513DD74DD5429
:103BB300DD53DD53DD33DD53DD53DD53DD53DD53A2
:103BC300D533DD33DD32DD32DD32D533D533D53395
:103BD300DD33D533D512CD32D553D553CD33D5952A
:103BE300DDD5DDD6DE17EDF49BAC00000000000050
:103BF30000000000102028C3522B7B2E8B2CBBAD62
:103C0300EE16FF1AFEFAFEFAFF7BFF5BFF7BFF3A1D
:103C1300EE13ABC7AB89EDF1F5B0AB48BC0C492152
:103C23004902A36AAB69CC6BBC4ABC4AD4EE9B087D
:103C330071C57A2859452862184120A218A20800A4
:103C43000000000000000000104141657AEB8AEAA1
:103C53009B2AB3EDC44EBC0DC44D8B29A34ACC0E95
:103C6300AAEB51650000080040E3A38DAB8D71857D
:103C7300380018212061100018213083828BBC3159
:103C8300DCF4C431BC10930C61E749464946620930
:103C9300832E9BF1BD15D5D9E67BD5F9A3B0ABAF88
:103CA3008249B3EFC472CCB2E5B6DD75DD75DD7460
:103CB300DD74DD74DD74DD54DD73DD73DD53DD53DD
:103CC300DD53DD53DD53DD53DD53DD53D554D55380
:103CD300D533D533D533D533D553D554D554DD95D5
:103CE300DDD6E5F6DE16F615938C00000000000025
:103CF30000000000080000000000308271E5B308F6
:103D0300FE75FF19FED9FF1AFF5BFF7BFF5AF6967C
:103D1300D50FB3C9DD0FD570936982A88AEA40E253
:103D2300AB8ACC8EB3A9C44AC48BE54FC3CB79E528
:103D330072075165180018411882104100000841AC
:103D4300002000000000000020825A2882EA9B6BBA
:103D5300B40DBC2DBC0DBC0CAB8AB40DCC6FBBCD6C
:103D630069C6200008007228C470C42FA2C98A271C
:103D730071A620413082620882CBBC52DD55E5B783
:103D8300E5B7DD76E5D7CD75A43051A72001410510
:103D9300494651A8726B7ACDACB4CDB8C515A3AF63
:103DA300D515D535DD55DD76DD96E596DD95DD95C5
:103DB300DD74DD74DD74DD74DD74DD74DD74DD7478
:103DC300DD74DD74DD74DD74DD74D574D574D57480
:103DD300D574D574D554D554D574D574CD53D57401
:103DE300DDB5E617DE16F635936B00000000000024
:103DF30000000000000008000000202081E5D40A34
:103E0300FED6FF18FF19FEF9FF5BFF5BFF39F633A0
:103E1300C46C9B07ABCA9BCB286061E749646226ED
:103E2300CC6E9B48ABA8D4EDE56FC3EAA28782278B
:103E330051452061188210610821082008200020C4
:103E4300000000000000082031046A68936CABACEA
:103E5300BC0DBBEDB3CCBC2DC44DD46FCC6F930A5A
:103E6300182028409B2DDD34CC91BBEEBBEEAB6C10
:103E7300720759A7AC51CD34D555EDD7E596DDF78B
:103E8300DDB6D5B6D5B6DE17E659E619BCD47AAB9E
:103E930049464105516661C85A0993F1AC72DDB7D1
:103EA300E5D8DD97DDB7E5B7E5D7E5B6DDB5DD9553
:103EB300DD95DD74DD74DD74DD94DD94DD74DD7416
:103EC300DD74DD74DD74D574D574D574D575D5748E
:103ED300D575D595D595D554CD13C4D2B470BC91B1
:103EE300C513E5F6EE58FE768B2A000000000000AD
:103EF3000000000000000800000018006122ED0E21
:103F0300FEB5FF17FF1AFEF9FF3BFF1BFEF8DD8F1F
:103F13009B476982B3A9514241037A698287BC4CAA
:103F2300C48EC48DEDB0ED90CC2B8A03692138810A
:103F330030A32083082100000000000000000000DF
:103F4300000000000000082031247ACAA3ADB3CDDD
:103F5300B3ACB3EDC44FCC8FC44EC48EA32B6986D0
:103F63007AAAAC2FDD32CC91CCB1CCF3C491BC7026
:103F7300932BCCF4EE18E5D7E5B7DDD7EE18E5D7EC
:103F8300E5F7E618E5F7E5D7DDF7DDF7EE79EE7946
:103F9300D575938D828A69E751A74986A452BCD40B
:103FA300DDD8D5D7DDD7DDD6E5D6E5D6E5B6E5B59B
:103FB300DD95DD95DD94DD74DD75DD75DD75DD7510
:103FC300DD74DD74DD75D595D595D575D595D5B6E7
:103FD300CD95C534B4719BCE8AEB82CA82EA8B2B12
:103FE30093ADBCF2E657FE9782E9000000000000A3
:103FF30000000020000008000800100038C1F5B1DF
:10400300FED6F718FF19FEF9FF3BFF3AF6B5DDAF11
:10401300CC8CC40CCC8DAC4EA410CCB2BC0DD52F23
:10402300E570E510ED2FB38871815943494430E3BE
:1040330010410000000000000821082000000000DB
:10404300000000000000104139248B0BABADB3CC52
:10405300BC2EC44EC44EC46FCC8FC4B08A889B0B95
:10406300D513DD54D512D533D533D534CD13CD1374
:10407300CD33E5F7DD95E5D6E5F6E5F6E5D6EDD7FF
:10408300EDD7E5D7EDD7EDB6E5D6DD95DDB5DDB6F4
:10409300E5F7DD96C4B2A3AD7A6972287AAA9BAE1E
:1040A300BCB2D575DDD7DDD7E617E5F7E5D6E5B6BE
:1040B300DDB5DD95DD95DD94DD95DD74DD95DD956F
:1040C300D575D595DDB6DD96DDB6DDD6DDB5C4F3A4
:1040D3009BCF72AA5A0851C74166498659C672696D
:1040E30082EA9B8DD594FEB87AC9000000000000D7
:1040F30000000021002010200800200048A0EDF25D
:10410300FEF7FF18FF19FEF9FEFAFEF8E5F1AC0918
:104113009B06BBEAB3ED51837AC97A46ABC9DD8E00
:10412300D4CDCC2CAB078A4469E538C32062100098
:10413300000000000000000000000000000000007C
:10414300000000000821188151A69B8DABADB3ACD4
:10415300C42EC46FCC8FCCD0CCAF9B2BABADD4F2E1
:10416300E574DD53DD74DD74DD74DD54DD74DD95DC
:10417300E5B6E5B6E5D6E5F6E5D6E5D6E5B5E5B6C5
:10418300DDB5DD95DDB5DDB5E5B5DD95DD94DD7436
:10419300DD75E5B7E5B5DD54BC30A38D9B4CAC2F85
:1041A300B470C4F3D555D575E5F7E617E5D6E5D66E
:1041B300DDB5DD95DD94DD94DD94DD95DDB5DDB50F
:1041C300D595D596DD96DD96CD35B4718B2C4965A5
:1041D30028A318201000180030E459C77268936CA4
:1041E300ABEE9BADB470EDF7624800000000000039
:1041F3000000000000001040080020204880DDB2CD
:10420300FF18FEF9FEF9FF19FEF9FEB6EDF1CCAB8E
:10421300BC08D4CBABE9A3C9DD71EDB1F5D0D4ECC7
:10422300CC8BC407BBA88A8830811000100008001B
:10423300000000000000000000000000000000007B
:1042430000000000102130E37AA9ABCDB3EEBC0D22
:10425300C44EC46FCCB0CCB0B40DABADDD33DD74A4
:10426300DD33DD53DD74DD74DD94DD95E5B5E5D532
:10427300E5D5DDB5E5D6E5D6DD95DD75DD94DD74F3
:10428300DD94D573D573D552D533D533DD73DD9333
:10429300DD73DD74DD74E5B5E574CCF2B450C4D2DE
:1042A300BCB1C4F3CD54D575E5D7E618E5F7E5F60B
:1042B300E5D6E5B5DD94DD94E5B5E5B5DD95DD95AC
:1042C300DD95D575D534BC717ACB518638C4184188
:1042D300184130E36207934DC492D513C512CD1331
:1042E300DD74D553B4B1D5544965000000200000F6
:1042F3000000000000000820082110003880DDB213
:10430300FF59FF1AFEF9FF19FEF7FE75D4EEBBE95C
:10431300C449D50BE5EFEDD0BC0BB3CBD4AED4ADD4
:10432300E54DE50A9AE6388210011861102008006D
:10433300000000000000000000200000000000005A
:1043430000001040184051A6932CABADBC0EC44ED8
:10435300C46FCC90CCD0CCD0C46FD512DD73D53321
:10436300DD74DD54DD54DD73DD74DD94E594E59493
:10437300E5B5E5D5E5B5DD74DD74DD75DD74DD53D7
:10438300DD53DD53DD32D4F2CCF1CCF1CD11D55276
:10439300DD73DD73DD53DD74E574E575D533CD135E
:1043A300CD13D554DDB6DDD6E617E617EE17E5F6E1
:1043B300E5D6E5B5E5B4E5B4DDB5DDB5DD94DD946D
:1043C300D533BC90A38D82A96A0859E751C75A080F
:1043D3008B6DB492D574E5B5DD74D553D573D553D0
:1043E300DD54DD95E616EE173103000000000000F2
:1043F3000000000000000000084108002840E5F329
:10440300FF19FF3AFF1AFF19FF18E5D292C68A6413
:10441300B3EABC4C598561449B09C46CD4ECE52CCC
:10442300E50DA38830601000184210210800000039
:104433000000000000000820080008000800080031
:104443000800186041437A899B2BB3CEBC2FC44E1E
:10445300C44FCCB0D4F1D4F1DD52DD73DD53E59418
:10446300E594DD54DD95DD94DD93DD73DD94DD733B
:10447300DD73DD53DD53DD74E595DD75DD54D51452
:10448300CCB2C4B2CCB2CCD2D4F2D512CCF0CCF0F4
:10449300D531DD52DD53DD53DD33DD53E594E5B531
:1044A300DDD5DDB6E5D6E5F6E617E617EE17EE162B
:1044B300E5D6E5D5E5B4E5B4DD95DDB5E5D5DD7443
:1044C300BC909B6C8AC98AC9932B936CB470D554E6
:1044D300E574E595D533CD12CD32D552DD53DD5399
:1044E300DD53D594EE57F6792082000000000000DA
:1044F30000000000000000000821100040A1EE347D
:10450300FF19FF1AFF3BFEF9FF19D5517A437A23AE
:10451300828748E151E5ABCDBBECCCCDDD6ED4AAAF
:10452300BBC85944100010201820182100000000B7
:10453300000000000000080010201861102008008F
:10454300186128E25A0692EBAB6DBBEEC44FC44F21
:10455300CCB0D4D1D4F1D532DD52DD74DD74E59421
:10456300DD74DD95DD94E593DD73DD73DD73DD735C
:10457300DD72DD72DD73D512B3EE8AAA69C74145D8
:1045830038C338E3494459C77A89AB8DC48FCCD03B
:10459300CCD0D512DD53DD53DD53DD33DD53E5B42C
:1045A300E5D6DDD6E5F6E5F6EE37E637EE17EE1699
:1045B300E5D6E5D5E5B4E5B4D595DD94DDB4D532DE
:1045C300BC6FB3EDB3EEB42FC4B0D512DD53D53207
:1045D300D532CD11CCF1D512CCF1D512D512D512DD
:1045E300DD53DD95EE78E618102000000000000092
:1045F3000000002100000800080020206963E5F4A2
:10460300FF5AFF3BFEFAFF1AFEB7ABC679C27A0226
:1046130082828A68CD11B3EDB3CBE54EE56DB3E984
:104623006A0720001000104118420000000000003B
:104633000000002000000800182128C3206110009A
:1046430038E3494372269B2BB3ADC42FCC6FCCB058
:10465300CCD1D511D532DD53DD53DD74DD74E59452
:10466300E594E594E594DD93DD73DD72DD52DD328F
:10467300DD32D4D3CC2E8A6738A2080008000000AC
:104683002081310539493945206120626A68ABCD03
:10469300E4F1CC8ED531DD52DD53DD33DD53E574EA
:1046A300E5B5E5D6E5F6EE17EE37EE37EE37EE175E
:1046B300E5F6E5D5E5B4E5B4DDB5DD94DD94D55394
:1046C300CD11CCD0C512D532D4F1D4F1D510D4F05C
:1046D300D4D1CC70D490CC90C450CC90CCD0CD114C
:1046E300CD52D594F657D575100000000020000078
:1046F3000000000000000000000030209245EE752D
:10470300FF5AFF3AFEFAFEF9E5B18A619AA5CCADEC
:10471300D50EBC3082A78266E54FF5CFC4298266E9
:10472300286218001800182108000000002000006B
:1047330008211021186128C241453903284030C29D
:10474300518559A48288A36CB3CDC44FCC90CCD0EF
:10475300D4F1D512DD33DD73DD94DD74E594E59496
:10476300E594E594E594DD93DD73DD52DD32DD11EF
:10477300D4D0BBEC8226180000002105312420612F
:10478300206208200021102130C430E4184140E3A6
:104793009ACAD510D4F0D511DD32DD32DD53E5747C
:1047A300E5B5E5D6E5D6EE17EE37EE37EE37E61686
:1047B300E5D6E5D5E5B4E5B4DD94DD94DD73D53216
:1047C300D512D531CD11D4F0D4D0D4AFCCAFCCAE3B
:1047D300CCCFCC8EC48ECCCFC4AFCCD0CC8FC4D0F6
:1047E300CD32DDD5F658BCD3080000000000000030
:1047F3000000000000000000004140619A86EE9630
:10480300FF3AFF1AFF1AFEF9C48A9284CC2AB42B0A
:1048130061A569E68B07DD90F5CFC448AB6750E22D
:10482300180018001841102000000020002000008C
:1048330018413904496559A56207410341034943B6
:1048430061C56A068AE9ABADBC0EC46FCCB0D4F1C6
:10485300D512DD52DD53DD73E594E594E594E594DB
:10486300E594E594E594DD93DD93DD32D511D4D061
:10487300BC0D8A256122498783F2A5374A2938C1AD
:104883001021000000000800286241656B2D498853
:104893006187ABACCC8FD4D1DD12DD32DD33DD33B8
:1048A300E595E5B5E5D6EDF6EE17EE37EE37E61608
:1048B300E5D6E5D5E5B4DDB4DD73D573D532CD11D9
:1048C300D4F1D511DD10DCF0D4AFD4D0D4D0CCAF3B
:1048D300CC8FC44EB40DBC2DBC4DC46ED4D0D511F9
:1048E300CD32DDB5F6789BEF00000020000000001C
:1048F300000000000000000000004881B307EEB68E
:10490300FF3AFF19FEF9FEF9B3E6C3EBBBC99308FF
:104913006A2882A7E5D0E58FCC68BC288265200091
:104923001800204118411021000000000000080079
:104933004986724969C682A969E661A47226512330
:1049430061C57A889B2BB3CDC42FCC90CCD0D51125
:10495300DD32DD53DD53E593E594E5B4E594E5B449
:10496300E5B4E594E594DD73DD93DD32DD11D4D058
:10497300BBCDAA689A0781C6C4D4E6FF5B0E494241
:104983002081630E73D11040412149A7B5D9A4D624
:104993008B0D79C6C3CDD46FDCF1D512D512DD33BF
:1049A300E574E594E5B5E5D6EE16EE17EE17E5F6F4
:1049B300E5D5E5B4DD94DD93DD72CD11CCF1CCF119
:1049C300D4F1D4F1D4D0D4D0DD52CCF1AC0D8AE9FA
:1049D300596449442861284059A5932ABC4EDD7384
:1049E300DD74DDB5F65872EB000000200000000016
:1049F3000000000000000000000050C2CBC9F6B662
:104A0300FF39FEF9FEF9FEF9C4698A258A646A034F
:104A13004901D52ED50CCC8BCC499B2530201801D0
:104A230018012042102108200000000010004986D0
:104A330082EC932C8AA992E97A678AE97A675964A6
:104A43006A278AE9A36BBBEEC44FCCB0CCF1D51176
:104A5300DD32DD53DD73E594E594E5B4E5B4E5B407
:104A6300E594E594E594DD73DD53D4F1CCB0C44E05
:104A7300BBCDC36DC32CA20691E6C4B5C5BA4945E7
:104A83004984A4B3732E30C049428C31C67BC5DA46
:104A9300C4739A69AAA8CBADD4B0D511D512E55386
:104AA300DD54DD74DD94E5B5EDF6EE16EE17EDF6A7
:104AB300E5D5DDB4DD73DD52D510C4D0CCD0D4F14F
:104AC300D4D1D4F1DD73D5738B8C49C61861000042
:104AD300080039E831C810C3000028C26A68C4F26C
:104AE300EDF6E5D5EE3649C60000002000000800CB
:104AF300000000000000000000007163CBC7EE95CA
:104B0300FF39FF19FF19FEF969C069618A6661E31C
:104B1300B48BEDAEC428CC29C4096140200018230E
:104B23001801206208200000000000002021410538
:104B330069E872289B2BB3CD9B2AA38C72476A0624
:104B4300724892EAA36CBC0ECC70CCD0CCF1D511D8
:104B5300DD32DD73DD73E594E594E5B5E5B5E5B4E4
:104B6300E594E594DD94DD73DD52D4F1D4B0CC4FFC
:104B7300C40DC44EC450BB6CB268A248BC53941459
:104B830051854160394059439B8FD67BBE3ACDD97D
:104B9300C452B2AAA207BB2BDCD0D511D512E55360
:104BA300DD53DD53DD74DDB5E5D6EDF6EE37EDF619
:104BB300E5D5DD94DD53D552C4AEC4AFCCF0CCD033
:104BC300D4B0E533A3CE49640000000000000842DE
:104BD3002841836FB5779C9330E4000031249BEE2A
:104BE300E5D5E5D5EE1439430000000000000800C8
:104BF300000000000020000000009246E449EE752A
:104C0300FF39FF19FEF9FEF971808A62AC07D54CB2
:104C1300DD4DB3C8C407D48C7A45306118012043F5
:104C23002041084000200000000018003820200028
:104C330030205123BC8FB42DBC2D9B4B826872272F
:104C43007A689B0AABACC44FCCB0CCD1D511DD3262
:104C5300DD53DD53E574E594EDB4E5B5E5B5E5B4B1
:104C6300E594E594E594DD53DD52DD31D4F1D4F0E0
:104C7300CCD0CCD0C490D4D1CC0FAB0BA249A24A98
:104C8300AB0E9B4F8BD1C63BDF5FD6FEDE7BD5756C
:104C9300A2EA81439164AA27AAC9E553D532DD73F9
:104CA300DD73DD53DD53E574E5D5EDF6EE16E5D59D
:104CB300E594DD73DD32CCD1CC4FCCB0D4F0E5122A
:104CC300D512A40F10201840318731EA080140C1E2
:104CD30040C08BF2CDDCD558BBEE5103000049C771
:104CE300AC2FD532DD7518820000000000000000F3
:104CF300000000000000000000009AA5E428E6146C
:104D0300FF5BFEFAFF18FF1892A4C46AD50BD50BFC
:104D1300BC29AB66D48AABA838802000204230A4DB
:104D230018410000000000001001388250A050819B
:104D330038003820BC4FD4F1BC2E9B4B8AA97A484B
:104D43008AA99B2BB3CDC46FCCB0CCF1D511DD3286
:104D5300DD53DD53E574E594EDB4E5B5E5B5E5B4B0
:104D6300E594E594E594E573E553DD32D511D5116A
:104D7300D4F1D512D512CCB1D4B1D4D2C40FBB8DDA
:104D8300AB2CA2EBA2EBAB4CAB4DA32DA2AA89A6F5
:104D930078C2702078A270C17143DCF1E594DD73B1
:104DA300DD73DD52DD33E573E5B4E5D5EDF5E5B44B
:104DB300DD73DD32D4F1C46FC44FCCF1D532D513DA
:104DC300936EBD1549A930E1DEB9841308412080F3
:104DD30049649D15BE3AD5D7C40E824849666A8A8E
:104DE300BC8FE5B3C4F2080000000000000000001F
:104DF30000000000000000000000A2E5D3E7E61376
:104E0300FF5AFEFAFF18FEF8AB67D4CBCCAAD50B3A
:104E1300BC28C429DCAB71E3180020412862286256
:104E230010000800000008002020408279E59A67FE
:104E3300588048006945E553D4F0930A8AA98AA9A2
:104E4300930AA34BB3CDC470CCD0D4F1D532DD5388
:104E5300DD53DD53E574E594EDB4E5B5E5B5E5B4AF
:104E6300E594E594E594E594E573DD53DD52DD3295
:104E7300DD32DD32DD32DD33DD33DD74D575D5B7BB
:104E8300D555CC92CC10C38EBB4CB2E9B30AAAA9B8
:104E9300B30AB30AC34CB30BBBCDE573D533DD7390
:104EA300DD53DD32DD32DD53E594E5B4E5B4DD7386
:104EB300D532D511CCB0BC0EC46FC4D0EDF69B2C4B
:104EC30040837AED733130C56227414230E051C3EC
:104ED3008BF1C67CBDD8D5B69B0B92EB9B6DAC50CA
:104EE300BCB0EE14B4B000000000000000000000ED
:104EF30000000000000000000000AB67D3E6E613EB
:104F0300FF3AFF1AFEF8FEF7D4ECCCCBBC28C4481A
:104F1300C408CC8AA3283880206128A328821000E3
:104F2300102008000800100030207207A3AEB3ACB5
:104F3300B34A70E1500079C4DD31A36B9B2B930A14
:104F4300930AA36CBC0EC470CCD1D511DD32DD53F2
:104F5300DD73E573E574E594ED94E5B5E5B5E5B585
:104F6300E5B5E594E594E574E574E573E553DD5340
:104F7300E553E553DD53E594DD74D553DDB5E5D74E
:104F8300E5D7DD96DD76D536D514CC91CCB1CC9072
:104F9300CC90C44ED490D490DD12DD53DD73E57410
:104FA300D532D512DD12DD32E573DD94DD93DD7389
:104FB300D532D4F1C46FB3EDBC6FC4F1E573B34B19
:104FC3009A67692271026902402059236A8AB55798
:104FD300DEBECDDBD517B3B0BC93F69AC4B2C4F230
:104FE300DD93FEB79C2F00000000000000000000CE
:104FF30000000000082000000000AB46CBA5EE1324
:10500300FF3AFF1AFEF8FEF7C4AABC28BC07C42760
:10501300D4CAC42959633060286220622062080020
:1050230010200000080020206144A34B9B8DBCB0DE
:10503300D552CCAFAB298204B3CCAB6CA36C9B0B26
:105043009B2AAB8CBC0EC470CCD1D512DD32DD53A0
:10505300E573E574E594E594ED94E5B5E5B5EDD533
:10506300EDB5EDB5EDB4ED95E594E574E574E57353
:10507300E574E573E594DD54E595DD95E574ED742C
:10508300ED95E594DD74D554DD55D4F3D4F3D4F321
:10509300D4F2D4B1D4D2DD53DD53DD73DD74DD53EB
:1050A300D532D511DD12DD32DD53DD73DD73DD5312
:1050B300D512D4F1C46FB3CCC42ECCF1DD53DCB123
:1050C300DC6FCC4ECC30C46DBBAC9A6B92AB934CC3
:1050D300934F92EDA2CCAB0C9BD0CD96D575CDB5AD
:1050E300DDD4FEF98B8D00000000000000000000FD
:1050F30000000000080000000800BB88CB85F674A0
:10510300FF3AFF1AFEF7FEF7C4EBABC6C407D48918
:10511300E52C826138C230603081206210010800C2
:1051230008000000080030A292C9BBACB3ECB48FF6
:10513300C573E616DD73D4AFB3ECABACAB6CA32B8A
:105143009B4BABADBC2EC470CCD1D512DD32DD731D
:10515300E573E574E594E594ED94E5D5EDB5EDD50A
:10516300EDD5EDB5EDB5ED95ED95E594E594E574E7
:10517300E574E574E594E574ED95E575E595E5B5B8
:10518300E575E595E594DD53DD53DD33DD13DD1280
:10519300DD33DD53DD54D553DD94D573DD73DD127B
:1051A300D532D511DD11DD12DD53DD73DD73DD5233
:1051B300D511D4D0C46FABACCC0ECCB0D554D51470
:1051C300CCD2CCF2DD12CD13DD54DCD1CC50AB6D9F
:1051D300AA889AA9A30A92A8B410CD55CD95D5F75C
:1051E300E636FF197B0C0000000000000000000001
:1051F30000000000080010212041D44BE3C6FE95B7
:10520300FF3AFF1AFED7FEF7AB26B386CC68E52C30
:105213009B2758E140C3284128C3184208000800CF
:105223000820002000005985CC70BC2EBC6FB3ED64
:10523300C44EE594E5F7E5F5D531A38AA38BA34BDB
:105243009B6CABCDBC2EC490CCD1D512DD32DD53DB
:10525300E573E594E594E5B5EDD5EDD5EDD5EDD55F
:10526300EDD5EDB5EDB5E5B5EDB5EDB5EDB5EDB513
:10527300ED95EDB5EDB5EDB5E5B5EDB5EDB5EDB543
:10528300EDB5ED95E595E595E575E574E574DD74A6
:10529300DD74DD74DD74DD74DD74DD53DD52DD3208
:1052A300DD11DD11DD11DD32DD53DD73E572DD323C
:1052B300D511D4D0C46FABACBC0DCC8FD512DD32BD
:1052C300D512D4F2D512DD13DD33DD33D532D51249
:1052D300D4F1D4F1CCF2D553DD95E5F5E636DE16FF
:1052E300E637FF7D5A680000000000000000000060
:1052F30000000000080000002881ED2CDC89F6D8AE
:10530300FF39FF19FED8FEF8A305C408DCC9C44859
:105313006981616240C3286128A30800080008006E
:105323000000004000004965CCB1C44FBC4EB3ED52
:10533300C46FDDB4DDF6DDB4CD10ABECABAB9B4B92
:105343009B6CABCDBC2FC490CCD1D512DD32DD53D9
:10535300E573E594E5B4E5B5EDD5EDD5EDD5EDD53E
:10536300EDD5EDD5EDD5EDB5EDB5EDB5EDB5EDB5CA
:10537300EDB5EDB5EDB5EDB5EDB5EDB5EDB5EDB51A
:10538300EDB5ED95E595E595E595E575E575E5955A
:10539300E595E595E574DD74DD74DD73DD52DD328D
:1053A300DD11DD11DD12DD32DD53DD73DD73DD3241
:1053B300D511CCD1CC8FB3CDB3EDCC6FD512DD33BA
:1053C300D532D512D512DD33DD33DD33DD33DD32B6
:1053D300E552DD32D532D553DDB5E5D5DDF5E657FA
:1053E300EE57FF3C49E6000000000000000000000B
:1053F30000000000000000002020D469D449F6D842
:10540300FF19FF19FEF8FEF8ABA7BC07DCCA8A82B6
:105413006161514228412041102100000820000011
:105423000000000000001820A3EED4D1BC0EB3EDA1
:10543300C4B0DDB4D5F5CD73CD11BC4EABAC9B4A36
:10544300A38CB3EEBC2FC490D4F1D512DD52E57317
:10545300E573E594E5B4EDD5EDD5EDD6EDD6EDF6F2
:10546300EDF6EDD6EDD6EDD5EDD5EDD5EDB5EDB546
:10547300EDB5EDB5EDB5EDB5EDB5EDB5EDB5EDB519
:10548300EDB5EDB5ED95E595E595E595E595E595F1
:10549300E595E5B5E595E594E574DD73DD53DD52FA
:1054A300DD12DD12DD12DD52DD53DD73DD73D53226
:1054B300D512D4D1CCB0BBEDB3EDC46FD511DD3370
:1054C300DD53DD33DD33DD33DD33DD53DD53DD52DA
:1054D300DD32DD32DD32D532DD73DD94DD94E65726
:1054E300EE78FF3C312400000000000000000000C3
:1054F30000000000002000002860E4AADC6BFEF935
:10550300FF19FF19FEF8FEF89B05D4AAB38669A01C
:10551300598338C2204120620000000008000000C7
:10552300000000000000000051C6CCD1BBEDBC2F31
:10553300CD32D594D5B4CD53CCF1C4B0ABCC9B4BC9
:10554300ABCDB40EBC4FCCB0CCD1D512DD52E5738C
:10555300E573E594E5B4EDD5EDD5EDD6EDD6EDF6F1
:10556300EDF6EDF6EDF6EDF6EDD6EDD6EDD6EDD6A0
:10557300EDD6EDD6EDD6EDD6EDD6EDD6EDD6EDD610
:10558300EDB5EDB5EDB5EDB5ED95E595E595E595A0
:10559300E595E5B5E595E594E594E574DD53DD52D0
:1055A300DD32DD12DD32DD53DD73DD53DD53D53204
:1055B300D512D4F1CCD1BC4FBBEDC46FD4F1DD32E5
:1055C300DD53DD53DD53DD53DD53DD32DD32DD32BB
:1055D300DD32DD52DD52DD52DD52DD73D573E63649
:1055E300F6B9FF3C20A2000000000000000000000C
:1055F300000000000020000040E2ECCBE52FFF3A62
:10560300FF19FEF9FEF9FED89B26C44A822179E3ED
:1056130040E2202128A318420000000000000000FF
:1056230000000000000100001840ABCDCC4EC44F79
:10563300D533D554CCF2CCF2CD12D511B40D9B6B2E
:10564300ABEDB40EBC4FC490CCD1D512DD53E57392
:10565300E573E594E5B4EDD5EDD5EDD6EDF6EDF6D0
:10566300EDF6EDF6EDF6EDF6EDF6EDF6EDF6EDD63F
:10567300EDD6EDD6EDD6EDD6EDD6EDD6EDD6EDD60F
:10568300EDD6EDB5EDB5EDB5EDB5EDB5EDB5E5B5EE
:10569300E5B5E5B5E5B5E594E594E574DD53DD528F
:1056A300DD32DD32DD33DD53DD73DD53DD53D532E2
:1056B300D532D4F1CCD1C470BC0DC46ECCD0DD32A4
:1056C300DD53DD73E573DD53DD53DD53DD52DD3231
:1056D300D531DD32DD32DD32DD52DD52DD73E616EA
:1056E300FEBAFEBB10200000000000000000000016
:1056F300000000000000000159A5E48AE592FF5A6A
:10570300FF19FEF9FEF9FED8C48C9B058A2361417B
:105713002820206310210000000100200000000069
:105723000000000000210000000069C6CC2ECC90D0
:10573300C4709B2BAB6CC4B1D533DD73BC4EA38B50
:10574300ABEDB40EBC4FC490CCD1D512DD52DD739A
:10575300E573E594E5B4E5B5EDD5E5F6EDF6EDF6DF
:10576300EE16EE16EE16EDF6EDF6EDF6EDF6EDF6BB
:10577300EDF6EDF6EDF6EDF6EDF6EDF6EDD6EDD64E
:10578300EDD6EDD6EDB5EDB5EDB5EDB5EDB5EDB5C4
:10579300EDB5EDD5E5B5E5B5E594E594DD53DD521D
:1057A300DD32DD33DD53DD73DD73D553DD53D532A8
:1057B300D532D4F1D4F1C490BC2DC46ECCB0D51283
:1057C300DD53DD73DD53E553E573DD73DD52DD52E8
:1057D300DD32DD52DD52DD52DD52E572E593E61630
:1057E300FEBAE638000000000000000000000000E0
:1057F300000008000000000061C5E4CAEE55FF5B2D
:10580300FEF9FEF9FEF9FED8B3878A4379E5304005
:1058130018001061000000000000000000000000FC
:105823000000000000000000000020A1ABCDC44F29
:10583300B36B60E0AB29DCD0D553D5B4C4F1AB8CEA
:10584300ABCDB42EBC4FC490CCF1D532D532DD7381
:10585300DD93E594E5B4E5B5EDD5EDD6EDF6EDF6DE
:10586300F5F7F617F617EDF7EDF7F617F617F61740
:10587300F617F5F6F5F7F617F5F7EDF6EDF6EDF69F
:10588300EDD6EDD6EDD6EDD6EDB5EDB5EDB5EDD561
:10589300EDB5EDB5E5B5E5B5E594E594DD53DD335B
:1058A300D532D533DD53DD74DD73DD73DD52DD5366
:1058B300DD12D512CD12C4D1BC4EC46FCC90DD1213
:1058C300DD53DD53E553DD53E553DD52DD52DD5248
:1058D300DD32DD32DD52DD52E572E553E573EDF580
:1058E300FEFBBD54000000000000000000000000AB
:1058F30000000000004000007981DCCAF6BBFF1AFB
:10590300FF19FF19FEF9FEF99AA38A4459221800D8
:10591300100008200000000000000000000000004C
:105923000000000000000000000008007A49D4D203
:105933009AC8AB49C48EDD52D593DE15D573B3AD8A
:10594300ABACB40EBC4FC490CCF1D512D532DD5301
:10595300DD73E594E5B4E5B5EDD5EDD6EDF6EDF6FD
:10596300EDF6F617F617EDF7EE17EE17EE17EE173F
:10597300EE17EE17F617F617EE17EDF7EDF7EDF650
:10598300EDF6EDD6EDD6EDD5EDB5EDB5EDB5EDD541
:10599300EDD5EDB5E5B5E5B5E594DD74DD53DD5342
:1059A300D532D553DD53DD74DD73DD73DD52DD5246
:1059B300D512D512D532C4F2BC4EC44FCC90D4F11B
:1059C300DD52DD73E553E553E553DD52DD52DD5220
:1059D300DD32DD32DD52DD52DD52E573E5B4E5D56E
:1059E300FF5C93EF000000000000000000000000D7
:1059F30000000000002008007181E54CFF1BFF1A26
:105A0300FF19FF19FEF9FEF99A8371C328400801B3
:105A13000000000000000000000000000000000083
:105A2300000000000000000000000000186261C6D2
:105A33008246DCF0E5B3E5B5E5D5DE16DDB4B3EDBE
:105A4300ABADB42EBC4FC490CCD1D512D532DD53FF
:105A5300DD73E594E5B4E5B5EDD5EDF6EDF6EDF6DC
:105A6300EE17EE17EE17EE17F617F617F617F617EB
:105A7300F617F617F617F617F617EE17EE17EDF7F4
:105A8300EDF6EDF6EDD6EDD6EDD5EDD5EDD5EDD5BF
:105A9300EDB5E5B5EDB5EDB5E594E574DD53DD5351
:105AA300D552DD53DD54DD74DD73DD73DD52DD333B
:105AB300DD32DD33D553CD33BC4EBC2ECC90D4D1A7
:105AC300DD32DD73E573E573E573DD52DD52DD52DF
